{
	"data": {
		"bytecode": {
			"linkReferences": {},
			"object": "608060405234801561001057600080fd5b5061018d806100206000396000f3fe608060405234801561001057600080fd5b506004361061002b5760003560e01c8063986cc31114610030575b600080fd5b61004a600480360381019061004591906100a1565b61004c565b005b7f67a11da177a669bb3712801e3d7d7a5ad767aa880fafd73d3e213b32fcc0b0e783838360405161007f939291906100ff565b60405180910390a1505050565b60008135905061009b81610140565b92915050565b6000806000606084860312156100b657600080fd5b60006100c48682870161008c565b93505060206100d58682870161008c565b92505060406100e68682870161008c565b9150509250925092565b6100f981610136565b82525050565b600060608201905061011460008301866100f0565b61012160208301856100f0565b61012e60408301846100f0565b949350505050565b6000819050919050565b61014981610136565b811461015457600080fd5b5056fea2646970667358221220361a5e62580de77a7da6159df21067fe3e04d556c4e80d11a0d4b52c237ff16064736f6c63430008000033",
			"opcodes": "PUSH1 0x80 PUSH1 0x40 MSTORE CALLVALUE DUP1 ISZERO PUSH2 0x10 JUMPI PUSH1 0x0 DUP1 REVERT JUMPDEST POP PUSH2 0x18D DUP1 PUSH2 0x20 PUSH1 0x0 CODECOPY PUSH1 0x0 RETURN INVALID PUSH1 0x80 PUSH1 0x40 MSTORE CALLVALUE DUP1 ISZERO PUSH2 0x10 JUMPI PUSH1 0x0 DUP1 REVERT JUMPDEST POP PUSH1 0x4 CALLDATASIZE LT PUSH2 0x2B JUMPI PUSH1 0x0 CALLDATALOAD PUSH1 0xE0 SHR DUP1 PUSH4 0x986CC311 EQ PUSH2 0x30 JUMPI JUMPDEST PUSH1 0x0 DUP1 REVERT JUMPDEST PUSH2 0x4A PUSH1 0x4 DUP1 CALLDATASIZE SUB DUP2 ADD SWAP1 PUSH2 0x45 SWAP2 SWAP1 PUSH2 0xA1 JUMP JUMPDEST PUSH2 0x4C JUMP JUMPDEST STOP JUMPDEST PUSH32 0x67A11DA177A669BB3712801E3D7D7A5AD767AA880FAFD73D3E213B32FCC0B0E7 DUP4 DUP4 DUP4 PUSH1 0x40 MLOAD PUSH2 0x7F SWAP4 SWAP3 SWAP2 SWAP1 PUSH2 0xFF JUMP JUMPDEST PUSH1 0x40 MLOAD DUP1 SWAP2 SUB SWAP1 LOG1 POP POP POP JUMP JUMPDEST PUSH1 0x0 DUP2 CALLDATALOAD SWAP1 POP PUSH2 0x9B DUP2 PUSH2 0x140 JUMP JUMPDEST SWAP3 SWAP2 POP POP JUMP JUMPDEST PUSH1 0x0 DUP1 PUSH1 0x0 PUSH1 0x60 DUP5 DUP7 SUB SLT ISZERO PUSH2 0xB6 JUMPI PUSH1 0x0 DUP1 REVERT JUMPDEST PUSH1 0x0 PUSH2 0xC4 DUP7 DUP3 DUP8 ADD PUSH2 0x8C JUMP JUMPDEST SWAP4 POP POP PUSH1 0x20 PUSH2 0xD5 DUP7 DUP3 DUP8 ADD PUSH2 0x8C JUMP JUMPDEST SWAP3 POP POP PUSH1 0x40 PUSH2 0xE6 DUP7 DUP3 DUP8 ADD PUSH2 0x8C JUMP JUMPDEST SWAP2 POP POP SWAP3 POP SWAP3 POP SWAP3 JUMP JUMPDEST PUSH2 0xF9 DUP2 PUSH2 0x136 JUMP JUMPDEST DUP3 MSTORE POP POP JUMP JUMPDEST PUSH1 0x0 PUSH1 0x60 DUP3 ADD SWAP1 POP PUSH2 0x114 PUSH1 0x0 DUP4 ADD DUP7 PUSH2 0xF0 JUMP JUMPDEST PUSH2 0x121 PUSH1 0x20 DUP4 ADD DUP6 PUSH2 0xF0 JUMP JUMPDEST PUSH2 0x12E PUSH1 0x40 DUP4 ADD DUP5 PUSH2 0xF0 JUMP JUMPDEST SWAP5 SWAP4 POP POP POP POP JUMP JUMPDEST PUSH1 0x0 DUP2 SWAP1 POP SWAP2 SWAP1 POP JUMP JUMPDEST PUSH2 0x149 DUP2 PUSH2 0x136 JUMP JUMPDEST DUP2 EQ PUSH2 0x154 JUMPI PUSH1 0x0 DUP1 REVERT JUMPDEST POP JUMP INVALID LOG2 PUSH5 0x6970667358 0x22 SLT KECCAK256 CALLDATASIZE BYTE 0x5E PUSH3 0x580DE7 PUSH27 0x7DA6159DF21067FE3E04D556C4E80D11A0D4B52C237FF16064736F PUSH13 0x63430008000033000000000000 "
		},
		"gasEstimates": {
			"creation": {
				"codeDepositCost": "79400",
				"executionCost": "129",
				"totalCost": "79529"
			},
			"external": {
				"executeProposal(uint256,uint256,uint256)": "infinite"
			}
		},
		"methodIdentifiers": {
			"executeProposal(uint256,uint256,uint256)": "986cc311"
		}
	},
	"abi": [
		{
			"anonymous": false,
			"inputs": [
				{
					"indexed": false,
					"internalType": "uint256",
					"name": "id",
					"type": "uint256"
				},
				{
					"indexed": false,
					"internalType": "uint256",
					"name": "votes",
					"type": "uint256"
				},
				{
					"indexed": false,
					"internalType": "uint256",
					"name": "tokens",
					"type": "uint256"
				}
			],
			"name": "ProposalExecution",
			"type": "event"
		},
		{
			"inputs": [
				{
					"internalType": "uint256",
					"name": "proposalId",
					"type": "uint256"
				},
				{
					"internalType": "uint256",
					"name": "numVotes",
					"type": "uint256"
				},
				{
					"internalType": "uint256",
					"name": "numTokens",
					"type": "uint256"
				}
			],
			"name": "executeProposal",
			"outputs": [],
			"stateMutability": "nonpayable",
			"type": "function"
		}
	]
}