{
	"data": {
		"bytecode": {
			"linkReferences": {},
			"object": "60806040526000805534801561001457600080fd5b5033600260006101000a81548173ffffffffffffffffffffffffffffffffffffffff021916908373ffffffffffffffffffffffffffffffffffffffff160217905550611dc7806100656000396000f3fe608060405234801561001057600080fd5b50600436106100b45760003560e01c80634fa5a16f116100715780634fa5a16f1461019257806367095dd8146101ae57806383d948b7146101b85780639fa3b30b146101d6578063c0658864146101f4578063f53d0a8e14610212576100b4565b8063013cf08b146100b957806309e69ede146100f0578063170f8d1f1461012057806317657a1c146101505780631c64b8a01461015a5780632295f24314610176575b600080fd5b6100d360048036038101906100ce91906112cc565b610230565b6040516100e7989796959493929190611453565b60405180910390f35b61010a60048036038101906101059190611504565b61036a565b6040516101179190611531565b60405180910390f35b61013a600480360381019061013591906116bf565b61038a565b604051610147919061172e565b60405180910390f35b6101586105ce565b005b610174600480360381019061016f9190611749565b61071e565b005b610190600480360381019061018b91906112cc565b610825565b005b6101ac60048036038101906101a79190611749565b610988565b005b6101b6610c1c565b005b6101c0610d2b565b6040516101cd9190611531565b60405180910390f35b6101de610d3e565b6040516101eb919061172e565b60405180910390f35b6101fc610d44565b604051610209919061172e565b60405180910390f35b61021a610d4a565b6040516102279190611789565b60405180910390f35b6001818154811061024057600080fd5b90600052602060002090600802016000915090508060000160009054906101000a900473ffffffffffffffffffffffffffffffffffffffff169080600101549080600201805461028f906117d3565b80601f01602080910402602001604051908101604052809291908181526020018280546102bb906117d3565b80156103085780601f106102dd57610100808354040283529160200191610308565b820191906000526020600020905b8154815290600101906020018083116102eb57829003601f168201915b5050505050908060030154908060040154908060050160009054906101000a900460ff16908060050160019054906101000a900460ff16908060070160009054906101000a900473ffffffffffffffffffffffffffffffffffffffff16905088565b60066020528060005260406000206000915054906101000a900460ff1681565b600060011515600660003373ffffffffffffffffffffffffffffffffffffffff1673ffffffffffffffffffffffffffffffffffffffff16815260200190815260200160002060009054906101000a900460ff161515146103e957600080fd5b60011515600560009054906101000a900460ff1615151461040957600080fd5b60006001805490509050600180816001815401808255809150500390600052602060002090505060006001828154811061044657610445611804565b5b9060005260206000209060080201905060008081548092919061046890611862565b9190505550338160000160006101000a81548173ffffffffffffffffffffffffffffffffffffffff021916908373ffffffffffffffffffffffffffffffffffffffff1602179055506000548160010181905550858160020190816104cc9190611a4c565b508481600301819055506000816004018190555060018160050160016101000a81548160ff02191690831515021790555060008160050160006101000a81548160ff021916908315150217905550838160070160006101000a81548173ffffffffffffffffffffffffffffffffffffffff021916908373ffffffffffffffffffffffffffffffffffffffff1602179055507f5622a33cfde197628279b713ab8b88e499361a9187b6dd801add67cf586f9c23600054338760405161059293929190611b1e565b60405180910390a16105c06040518060600160405280602d8152602001611d65602d91396000548888610d70565b600054925050509392505050565b60001515600660003373ffffffffffffffffffffffffffffffffffffffff1673ffffffffffffffffffffffffffffffffffffffff16815260200190815260200160002060009054906101000a900460ff1615151461062b57600080fd5b600260009054906101000a900473ffffffffffffffffffffffffffffffffffffffff1673ffffffffffffffffffffffffffffffffffffffff163373ffffffffffffffffffffffffffffffffffffffff160361068557600080fd5b6001600660003373ffffffffffffffffffffffffffffffffffffffff1673ffffffffffffffffffffffffffffffffffffffff16815260200190815260200160002060006101000a81548160ff02191690831515021790555061071c6040518060400160405280601881526020017f5061727469636970616e746520257320616e69616469646f000000000000000081525033610e12565b565b600260009054906101000a900473ffffffffffffffffffffffffffffffffffffffff1673ffffffffffffffffffffffffffffffffffffffff163373ffffffffffffffffffffffffffffffffffffffff161461077857600080fd5b60001515600560009054906101000a900460ff1615151461079857600080fd5b7f03270b5691af526f8182c9b4d6c779a3008eddceee1c00ca86bd9e31b455470982826040516107c9929190611b55565b60405180910390a181600381905550806004819055506001600560006101000a81548160ff0219169083151502179055506108216040518060600160405280602a8152602001611d3b602a9139600354600454610eae565b5050565b60011515600660003373ffffffffffffffffffffffffffffffffffffffff1673ffffffffffffffffffffffffffffffffffffffff16815260200190815260200160002060009054906101000a900460ff1615151461088257600080fd5b600061088d82610f4d565b90503373ffffffffffffffffffffffffffffffffffffffff168160000160009054906101000a900473ffffffffffffffffffffffffffffffffffffffff1673ffffffffffffffffffffffffffffffffffffffff160361097f5760008160050160016101000a81548160ff0219169083151502179055507fd8e808805f95552d6de13372d6c625e6d1ac526f69de97048077c6c2eed41e7482604051610932919061172e565b60405180910390a161097a6040518060400160405280601e81526020017f50726f707565737461205b25735d20726574697261646120706f7220257300008152508333611085565b610984565b600080fd5b5050565b60011515600660003373ffffffffffffffffffffffffffffffffffffffff1673ffffffffffffffffffffffffffffffffffffffff16815260200190815260200160002060009054906101000a900460ff161515146109e557600080fd5b60011515600560009054906101000a900460ff16151514610a0557600080fd5b6000610a1083610f4d565b905060008160060160003373ffffffffffffffffffffffffffffffffffffffff1673ffffffffffffffffffffffffffffffffffffffff16815260200190815260200160002054905060008382610a669190611b7e565b9050808360060160003373ffffffffffffffffffffffffffffffffffffffff1673ffffffffffffffffffffffffffffffffffffffff16815260200190815260200160002081905550838360040154610abe9190611b7e565b83600401819055508260030154836004015410610c15578260070160009054906101000a900473ffffffffffffffffffffffffffffffffffffffff1673ffffffffffffffffffffffffffffffffffffffff1663986cc311620186a087866004015487600301546040518563ffffffff1660e01b8152600401610b4293929190611bb2565b600060405180830381600088803b158015610b5c57600080fd5b5087f1158015610b70573d6000803e3d6000fd5b505050505060018360050160006101000a81548160ff021916908315150217905550610bd16040518060400160405280601781526020017f50726f707565737461205b25735d206170726f6261646100000000000000000081525086611124565b7f34470c7e31bbbf1b726dfe76d07293350c82e9f19f51c9fa05859e6f3330b3968584600401548560030154604051610c0c93929190611bb2565b60405180910390a15b5050505050565b600260009054906101000a900473ffffffffffffffffffffffffffffffffffffffff1673ffffffffffffffffffffffffffffffffffffffff163373ffffffffffffffffffffffffffffffffffffffff1614610c7657600080fd5b60011515600560009054906101000a900460ff16151514610c9657600080fd5b6004544211610ca457600080fd5b7f5703c2dbb5386f40b06ee9f3400d3cf4c935bc803c3f56d4b20c4aca936199e760405160405180910390a16000600560006101000a81548160ff021916908315150217905550610d296040518060400160405280601e81526020017f50726f6365736f20646520766f746163696f6e2066696e616c697a61646f00008152506111c0565b565b600560009054906101000a900460ff1681565b60035481565b60045481565b600260009054906101000a900473ffffffffffffffffffffffffffffffffffffffff1681565b610e0c84848484604051602401610d8a9493929190611be9565b6040516020818303038152906040527fc67ea9d1000000000000000000000000000000000000000000000000000000007bffffffffffffffffffffffffffffffffffffffffffffffffffffffff19166020820180517bffffffffffffffffffffffffffffffffffffffffffffffffffffffff8381831617835250505050611259565b50505050565b610eaa8282604051602401610e28929190611c3c565b6040516020818303038152906040527f319af333000000000000000000000000000000000000000000000000000000007bffffffffffffffffffffffffffffffffffffffffffffffffffffffff19166020820180517bffffffffffffffffffffffffffffffffffffffffffffffffffffffff8381831617835250505050611259565b5050565b610f48838383604051602401610ec693929190611c6c565b6040516020818303038152906040527fca47c4eb000000000000000000000000000000000000000000000000000000007bffffffffffffffffffffffffffffffffffffffffffffffffffffffff19166020820180517bffffffffffffffffffffffffffffffffffffffffffffffffffffffff8381831617835250505050611259565b505050565b60008060009050600060018054905090505b8360018381548110610f7457610f73611804565b5b90600052602060002090600802016001015414158015610f945750808211155b15610fac578180610fa490611862565b925050610f5f565b8360018381548110610fc157610fc0611804565b5b90600052602060002090600802016001015414801561100f575060018281548110610fef57610fee611804565b5b906000526020600020906008020160050160019054906101000a900460ff165b801561104b57506001828154811061102a57611029611804565b5b906000526020600020906008020160050160009054906101000a900460ff16155b1561107b576001828154811061106457611063611804565b5b906000526020600020906008020192505050611080565b600080fd5b919050565b61111f83838360405160240161109d93929190611caa565b6040516020818303038152906040527f1c7ec448000000000000000000000000000000000000000000000000000000007bffffffffffffffffffffffffffffffffffffffffffffffffffffffff19166020820180517bffffffffffffffffffffffffffffffffffffffffffffffffffffffff8381831617835250505050611259565b505050565b6111bc828260405160240161113a929190611ce8565b6040516020818303038152906040527fb60e72cc000000000000000000000000000000000000000000000000000000007bffffffffffffffffffffffffffffffffffffffffffffffffffffffff19166020820180517bffffffffffffffffffffffffffffffffffffffffffffffffffffffff8381831617835250505050611259565b5050565b611256816040516024016111d49190611d18565b6040516020818303038152906040527f41304fac000000000000000000000000000000000000000000000000000000007bffffffffffffffffffffffffffffffffffffffffffffffffffffffff19166020820180517bffffffffffffffffffffffffffffffffffffffffffffffffffffffff8381831617835250505050611259565b50565b60008151905060006a636f6e736f6c652e6c6f679050602083016000808483855afa5050505050565b6000604051905090565b600080fd5b600080fd5b6000819050919050565b6112a981611296565b81146112b457600080fd5b50565b6000813590506112c6816112a0565b92915050565b6000602082840312156112e2576112e161128c565b5b60006112f0848285016112b7565b91505092915050565b600073ffffffffffffffffffffffffffffffffffffffff82169050919050565b6000611324826112f9565b9050919050565b61133481611319565b82525050565b61134381611296565b82525050565b600081519050919050565b600082825260208201905092915050565b60005b83811015611383578082015181840152602081019050611368565b60008484015250505050565b6000601f19601f8301169050919050565b60006113ab82611349565b6113b58185611354565b93506113c5818560208601611365565b6113ce8161138f565b840191505092915050565b60008115159050919050565b6113ee816113d9565b82525050565b6000819050919050565b600061141961141461140f846112f9565b6113f4565b6112f9565b9050919050565b600061142b826113fe565b9050919050565b600061143d82611420565b9050919050565b61144d81611432565b82525050565b600061010082019050611469600083018b61132b565b611476602083018a61133a565b818103604083015261148881896113a0565b9050611497606083018861133a565b6114a4608083018761133a565b6114b160a08301866113e5565b6114be60c08301856113e5565b6114cb60e0830184611444565b9998505050505050505050565b6114e181611319565b81146114ec57600080fd5b50565b6000813590506114fe816114d8565b92915050565b60006020828403121561151a5761151961128c565b5b6000611528848285016114ef565b91505092915050565b600060208201905061154660008301846113e5565b92915050565b600080fd5b600080fd5b7f4e487b7100000000000000000000000000000000000000000000000000000000600052604160045260246000fd5b61158e8261138f565b810181811067ffffffffffffffff821117156115ad576115ac611556565b5b80604052505050565b60006115c0611282565b90506115cc8282611585565b919050565b600067ffffffffffffffff8211156115ec576115eb611556565b5b6115f58261138f565b9050602081019050919050565b82818337600083830152505050565b600061162461161f846115d1565b6115b6565b9050828152602081018484840111156116405761163f611551565b5b61164b848285611602565b509392505050565b600082601f8301126116685761166761154c565b5b8135611678848260208601611611565b91505092915050565b600061168c82611319565b9050919050565b61169c81611681565b81146116a757600080fd5b50565b6000813590506116b981611693565b92915050565b6000806000606084860312156116d8576116d761128c565b5b600084013567ffffffffffffffff8111156116f6576116f5611291565b5b61170286828701611653565b9350506020611713868287016112b7565b9250506040611724868287016116aa565b9150509250925092565b6000602082019050611743600083018461133a565b92915050565b600080604083850312156117605761175f61128c565b5b600061176e858286016112b7565b925050602061177f858286016112b7565b9150509250929050565b600060208201905061179e600083018461132b565b92915050565b7f4e487b7100000000000000000000000000000000000000000000000000000000600052602260045260246000fd5b600060028204905060018216806117eb57607f821691505b6020821081036117fe576117fd6117a4565b5b50919050565b7f4e487b7100000000000000000000000000000000000000000000000000000000600052603260045260246000fd5b7f4e487b7100000000000000000000000000000000000000000000000000000000600052601160045260246000fd5b600061186d82611296565b91507fffffffffffffffffffffffffffffffffffffffffffffffffffffffffffffffff820361189f5761189e611833565b5b600182019050919050565b60008190508160005260206000209050919050565b60006020601f8301049050919050565b600082821b905092915050565b60006008830261190c7fffffffffffffffffffffffffffffffffffffffffffffffffffffffffffffffff826118cf565b61191686836118cf565b95508019841693508086168417925050509392505050565b600061194961194461193f84611296565b6113f4565b611296565b9050919050565b6000819050919050565b6119638361192e565b61197761196f82611950565b8484546118dc565b825550505050565b600090565b61198c61197f565b61199781848461195a565b505050565b5b818110156119bb576119b0600082611984565b60018101905061199d565b5050565b601f821115611a00576119d1816118aa565b6119da846118bf565b810160208510156119e9578190505b6119fd6119f5856118bf565b83018261199c565b50505b505050565b600082821c905092915050565b6000611a2360001984600802611a05565b1980831691505092915050565b6000611a3c8383611a12565b9150826002028217905092915050565b611a5582611349565b67ffffffffffffffff811115611a6e57611a6d611556565b5b611a7882546117d3565b611a838282856119bf565b600060209050601f831160018114611ab65760008415611aa4578287015190505b611aae8582611a30565b865550611b16565b601f198416611ac4866118aa565b60005b82811015611aec57848901518255600182019150602085019450602081019050611ac7565b86831015611b095784890151611b05601f891682611a12565b8355505b6001600288020188555050505b505050505050565b6000606082019050611b33600083018661133a565b611b40602083018561132b565b611b4d604083018461133a565b949350505050565b6000604082019050611b6a600083018561133a565b611b77602083018461133a565b9392505050565b6000611b8982611296565b9150611b9483611296565b9250828201905080821115611bac57611bab611833565b5b92915050565b6000606082019050611bc7600083018661133a565b611bd4602083018561133a565b611be1604083018461133a565b949350505050565b60006080820190508181036000830152611c0381876113a0565b9050611c12602083018661133a565b8181036040830152611c2481856113a0565b9050611c33606083018461133a565b95945050505050565b60006040820190508181036000830152611c5681856113a0565b9050611c65602083018461132b565b9392505050565b60006060820190508181036000830152611c8681866113a0565b9050611c95602083018561133a565b611ca2604083018461133a565b949350505050565b60006060820190508181036000830152611cc481866113a0565b9050611cd3602083018561133a565b611ce0604083018461132b565b949350505050565b60006040820190508181036000830152611d0281856113a0565b9050611d11602083018461133a565b9392505050565b60006020820190508181036000830152611d3281846113a0565b90509291505056fe70726f6365736f20646520766f746163696f6e20696e69636961646f20656e747265202573207920257350726f707565737461205b25735d20257320636f6e20707265737570756573746f20257320616e69616469646fa2646970667358221220ddec42d8692f96258da5c51155c11b5c58232ea896a33829decc30116d3c56e964736f6c63430008120033",
			"opcodes": "PUSH1 0x80 PUSH1 0x40 MSTORE PUSH1 0x0 DUP1 SSTORE CALLVALUE DUP1 ISZERO PUSH2 0x14 JUMPI PUSH1 0x0 DUP1 REVERT JUMPDEST POP CALLER PUSH1 0x2 PUSH1 0x0 PUSH2 0x100 EXP DUP2 SLOAD DUP2 PUSH20 0xFFFFFFFFFFFFFFFFFFFFFFFFFFFFFFFFFFFFFFFF MUL NOT AND SWAP1 DUP4 PUSH20 0xFFFFFFFFFFFFFFFFFFFFFFFFFFFFFFFFFFFFFFFF AND MUL OR SWAP1 SSTORE POP PUSH2 0x1DC7 DUP1 PUSH2 0x65 PUSH1 0x0 CODECOPY PUSH1 0x0 RETURN INVALID PUSH1 0x80 PUSH1 0x40 MSTORE CALLVALUE DUP1 ISZERO PUSH2 0x10 JUMPI PUSH1 0x0 DUP1 REVERT JUMPDEST POP PUSH1 0x4 CALLDATASIZE LT PUSH2 0xB4 JUMPI PUSH1 0x0 CALLDATALOAD PUSH1 0xE0 SHR DUP1 PUSH4 0x4FA5A16F GT PUSH2 0x71 JUMPI DUP1 PUSH4 0x4FA5A16F EQ PUSH2 0x192 JUMPI DUP1 PUSH4 0x67095DD8 EQ PUSH2 0x1AE JUMPI DUP1 PUSH4 0x83D948B7 EQ PUSH2 0x1B8 JUMPI DUP1 PUSH4 0x9FA3B30B EQ PUSH2 0x1D6 JUMPI DUP1 PUSH4 0xC0658864 EQ PUSH2 0x1F4 JUMPI DUP1 PUSH4 0xF53D0A8E EQ PUSH2 0x212 JUMPI PUSH2 0xB4 JUMP JUMPDEST DUP1 PUSH4 0x13CF08B EQ PUSH2 0xB9 JUMPI DUP1 PUSH4 0x9E69EDE EQ PUSH2 0xF0 JUMPI DUP1 PUSH4 0x170F8D1F EQ PUSH2 0x120 JUMPI DUP1 PUSH4 0x17657A1C EQ PUSH2 0x150 JUMPI DUP1 PUSH4 0x1C64B8A0 EQ PUSH2 0x15A JUMPI DUP1 PUSH4 0x2295F243 EQ PUSH2 0x176 JUMPI JUMPDEST PUSH1 0x0 DUP1 REVERT JUMPDEST PUSH2 0xD3 PUSH1 0x4 DUP1 CALLDATASIZE SUB DUP2 ADD SWAP1 PUSH2 0xCE SWAP2 SWAP1 PUSH2 0x12CC JUMP JUMPDEST PUSH2 0x230 JUMP JUMPDEST PUSH1 0x40 MLOAD PUSH2 0xE7 SWAP9 SWAP8 SWAP7 SWAP6 SWAP5 SWAP4 SWAP3 SWAP2 SWAP1 PUSH2 0x1453 JUMP JUMPDEST PUSH1 0x40 MLOAD DUP1 SWAP2 SUB SWAP1 RETURN JUMPDEST PUSH2 0x10A PUSH1 0x4 DUP1 CALLDATASIZE SUB DUP2 ADD SWAP1 PUSH2 0x105 SWAP2 SWAP1 PUSH2 0x1504 JUMP JUMPDEST PUSH2 0x36A JUMP JUMPDEST PUSH1 0x40 MLOAD PUSH2 0x117 SWAP2 SWAP1 PUSH2 0x1531 JUMP JUMPDEST PUSH1 0x40 MLOAD DUP1 SWAP2 SUB SWAP1 RETURN JUMPDEST PUSH2 0x13A PUSH1 0x4 DUP1 CALLDATASIZE SUB DUP2 ADD SWAP1 PUSH2 0x135 SWAP2 SWAP1 PUSH2 0x16BF JUMP JUMPDEST PUSH2 0x38A JUMP JUMPDEST PUSH1 0x40 MLOAD PUSH2 0x147 SWAP2 SWAP1 PUSH2 0x172E JUMP JUMPDEST PUSH1 0x40 MLOAD DUP1 SWAP2 SUB SWAP1 RETURN JUMPDEST PUSH2 0x158 PUSH2 0x5CE JUMP JUMPDEST STOP JUMPDEST PUSH2 0x174 PUSH1 0x4 DUP1 CALLDATASIZE SUB DUP2 ADD SWAP1 PUSH2 0x16F SWAP2 SWAP1 PUSH2 0x1749 JUMP JUMPDEST PUSH2 0x71E JUMP JUMPDEST STOP JUMPDEST PUSH2 0x190 PUSH1 0x4 DUP1 CALLDATASIZE SUB DUP2 ADD SWAP1 PUSH2 0x18B SWAP2 SWAP1 PUSH2 0x12CC JUMP JUMPDEST PUSH2 0x825 JUMP JUMPDEST STOP JUMPDEST PUSH2 0x1AC PUSH1 0x4 DUP1 CALLDATASIZE SUB DUP2 ADD SWAP1 PUSH2 0x1A7 SWAP2 SWAP1 PUSH2 0x1749 JUMP JUMPDEST PUSH2 0x988 JUMP JUMPDEST STOP JUMPDEST PUSH2 0x1B6 PUSH2 0xC1C JUMP JUMPDEST STOP JUMPDEST PUSH2 0x1C0 PUSH2 0xD2B JUMP JUMPDEST PUSH1 0x40 MLOAD PUSH2 0x1CD SWAP2 SWAP1 PUSH2 0x1531 JUMP JUMPDEST PUSH1 0x40 MLOAD DUP1 SWAP2 SUB SWAP1 RETURN JUMPDEST PUSH2 0x1DE PUSH2 0xD3E JUMP JUMPDEST PUSH1 0x40 MLOAD PUSH2 0x1EB SWAP2 SWAP1 PUSH2 0x172E JUMP JUMPDEST PUSH1 0x40 MLOAD DUP1 SWAP2 SUB SWAP1 RETURN JUMPDEST PUSH2 0x1FC PUSH2 0xD44 JUMP JUMPDEST PUSH1 0x40 MLOAD PUSH2 0x209 SWAP2 SWAP1 PUSH2 0x172E JUMP JUMPDEST PUSH1 0x40 MLOAD DUP1 SWAP2 SUB SWAP1 RETURN JUMPDEST PUSH2 0x21A PUSH2 0xD4A JUMP JUMPDEST PUSH1 0x40 MLOAD PUSH2 0x227 SWAP2 SWAP1 PUSH2 0x1789 JUMP JUMPDEST PUSH1 0x40 MLOAD DUP1 SWAP2 SUB SWAP1 RETURN JUMPDEST PUSH1 0x1 DUP2 DUP2 SLOAD DUP2 LT PUSH2 0x240 JUMPI PUSH1 0x0 DUP1 REVERT JUMPDEST SWAP1 PUSH1 0x0 MSTORE PUSH1 0x20 PUSH1 0x0 KECCAK256 SWAP1 PUSH1 0x8 MUL ADD PUSH1 0x0 SWAP2 POP SWAP1 POP DUP1 PUSH1 0x0 ADD PUSH1 0x0 SWAP1 SLOAD SWAP1 PUSH2 0x100 EXP SWAP1 DIV PUSH20 0xFFFFFFFFFFFFFFFFFFFFFFFFFFFFFFFFFFFFFFFF AND SWAP1 DUP1 PUSH1 0x1 ADD SLOAD SWAP1 DUP1 PUSH1 0x2 ADD DUP1 SLOAD PUSH2 0x28F SWAP1 PUSH2 0x17D3 JUMP JUMPDEST DUP1 PUSH1 0x1F ADD PUSH1 0x20 DUP1 SWAP2 DIV MUL PUSH1 0x20 ADD PUSH1 0x40 MLOAD SWAP1 DUP2 ADD PUSH1 0x40 MSTORE DUP1 SWAP3 SWAP2 SWAP1 DUP2 DUP2 MSTORE PUSH1 0x20 ADD DUP3 DUP1 SLOAD PUSH2 0x2BB SWAP1 PUSH2 0x17D3 JUMP JUMPDEST DUP1 ISZERO PUSH2 0x308 JUMPI DUP1 PUSH1 0x1F LT PUSH2 0x2DD JUMPI PUSH2 0x100 DUP1 DUP4 SLOAD DIV MUL DUP4 MSTORE SWAP2 PUSH1 0x20 ADD SWAP2 PUSH2 0x308 JUMP JUMPDEST DUP3 ADD SWAP2 SWAP1 PUSH1 0x0 MSTORE PUSH1 0x20 PUSH1 0x0 KECCAK256 SWAP1 JUMPDEST DUP2 SLOAD DUP2 MSTORE SWAP1 PUSH1 0x1 ADD SWAP1 PUSH1 0x20 ADD DUP1 DUP4 GT PUSH2 0x2EB JUMPI DUP3 SWAP1 SUB PUSH1 0x1F AND DUP3 ADD SWAP2 JUMPDEST POP POP POP POP POP SWAP1 DUP1 PUSH1 0x3 ADD SLOAD SWAP1 DUP1 PUSH1 0x4 ADD SLOAD SWAP1 DUP1 PUSH1 0x5 ADD PUSH1 0x0 SWAP1 SLOAD SWAP1 PUSH2 0x100 EXP SWAP1 DIV PUSH1 0xFF AND SWAP1 DUP1 PUSH1 0x5 ADD PUSH1 0x1 SWAP1 SLOAD SWAP1 PUSH2 0x100 EXP SWAP1 DIV PUSH1 0xFF AND SWAP1 DUP1 PUSH1 0x7 ADD PUSH1 0x0 SWAP1 SLOAD SWAP1 PUSH2 0x100 EXP SWAP1 DIV PUSH20 0xFFFFFFFFFFFFFFFFFFFFFFFFFFFFFFFFFFFFFFFF AND SWAP1 POP DUP9 JUMP JUMPDEST PUSH1 0x6 PUSH1 0x20 MSTORE DUP1 PUSH1 0x0 MSTORE PUSH1 0x40 PUSH1 0x0 KECCAK256 PUSH1 0x0 SWAP2 POP SLOAD SWAP1 PUSH2 0x100 EXP SWAP1 DIV PUSH1 0xFF AND DUP2 JUMP JUMPDEST PUSH1 0x0 PUSH1 0x1 ISZERO ISZERO PUSH1 0x6 PUSH1 0x0 CALLER PUSH20 0xFFFFFFFFFFFFFFFFFFFFFFFFFFFFFFFFFFFFFFFF AND PUSH20 0xFFFFFFFFFFFFFFFFFFFFFFFFFFFFFFFFFFFFFFFF AND DUP2 MSTORE PUSH1 0x20 ADD SWAP1 DUP2 MSTORE PUSH1 0x20 ADD PUSH1 0x0 KECCAK256 PUSH1 0x0 SWAP1 SLOAD SWAP1 PUSH2 0x100 EXP SWAP1 DIV PUSH1 0xFF AND ISZERO ISZERO EQ PUSH2 0x3E9 JUMPI PUSH1 0x0 DUP1 REVERT JUMPDEST PUSH1 0x1 ISZERO ISZERO PUSH1 0x5 PUSH1 0x0 SWAP1 SLOAD SWAP1 PUSH2 0x100 EXP SWAP1 DIV PUSH1 0xFF AND ISZERO ISZERO EQ PUSH2 0x409 JUMPI PUSH1 0x0 DUP1 REVERT JUMPDEST PUSH1 0x0 PUSH1 0x1 DUP1 SLOAD SWAP1 POP SWAP1 POP PUSH1 0x1 DUP1 DUP2 PUSH1 0x1 DUP2 SLOAD ADD DUP1 DUP3 SSTORE DUP1 SWAP2 POP POP SUB SWAP1 PUSH1 0x0 MSTORE PUSH1 0x20 PUSH1 0x0 KECCAK256 SWAP1 POP POP PUSH1 0x0 PUSH1 0x1 DUP3 DUP2 SLOAD DUP2 LT PUSH2 0x446 JUMPI PUSH2 0x445 PUSH2 0x1804 JUMP JUMPDEST JUMPDEST SWAP1 PUSH1 0x0 MSTORE PUSH1 0x20 PUSH1 0x0 KECCAK256 SWAP1 PUSH1 0x8 MUL ADD SWAP1 POP PUSH1 0x0 DUP1 DUP2 SLOAD DUP1 SWAP3 SWAP2 SWAP1 PUSH2 0x468 SWAP1 PUSH2 0x1862 JUMP JUMPDEST SWAP2 SWAP1 POP SSTORE POP CALLER DUP2 PUSH1 0x0 ADD PUSH1 0x0 PUSH2 0x100 EXP DUP2 SLOAD DUP2 PUSH20 0xFFFFFFFFFFFFFFFFFFFFFFFFFFFFFFFFFFFFFFFF MUL NOT AND SWAP1 DUP4 PUSH20 0xFFFFFFFFFFFFFFFFFFFFFFFFFFFFFFFFFFFFFFFF AND MUL OR SWAP1 SSTORE POP PUSH1 0x0 SLOAD DUP2 PUSH1 0x1 ADD DUP2 SWAP1 SSTORE POP DUP6 DUP2 PUSH1 0x2 ADD SWAP1 DUP2 PUSH2 0x4CC SWAP2 SWAP1 PUSH2 0x1A4C JUMP JUMPDEST POP DUP5 DUP2 PUSH1 0x3 ADD DUP2 SWAP1 SSTORE POP PUSH1 0x0 DUP2 PUSH1 0x4 ADD DUP2 SWAP1 SSTORE POP PUSH1 0x1 DUP2 PUSH1 0x5 ADD PUSH1 0x1 PUSH2 0x100 EXP DUP2 SLOAD DUP2 PUSH1 0xFF MUL NOT AND SWAP1 DUP4 ISZERO ISZERO MUL OR SWAP1 SSTORE POP PUSH1 0x0 DUP2 PUSH1 0x5 ADD PUSH1 0x0 PUSH2 0x100 EXP DUP2 SLOAD DUP2 PUSH1 0xFF MUL NOT AND SWAP1 DUP4 ISZERO ISZERO MUL OR SWAP1 SSTORE POP DUP4 DUP2 PUSH1 0x7 ADD PUSH1 0x0 PUSH2 0x100 EXP DUP2 SLOAD DUP2 PUSH20 0xFFFFFFFFFFFFFFFFFFFFFFFFFFFFFFFFFFFFFFFF MUL NOT AND SWAP1 DUP4 PUSH20 0xFFFFFFFFFFFFFFFFFFFFFFFFFFFFFFFFFFFFFFFF AND MUL OR SWAP1 SSTORE POP PUSH32 0x5622A33CFDE197628279B713AB8B88E499361A9187B6DD801ADD67CF586F9C23 PUSH1 0x0 SLOAD CALLER DUP8 PUSH1 0x40 MLOAD PUSH2 0x592 SWAP4 SWAP3 SWAP2 SWAP1 PUSH2 0x1B1E JUMP JUMPDEST PUSH1 0x40 MLOAD DUP1 SWAP2 SUB SWAP1 LOG1 PUSH2 0x5C0 PUSH1 0x40 MLOAD DUP1 PUSH1 0x60 ADD PUSH1 0x40 MSTORE DUP1 PUSH1 0x2D DUP2 MSTORE PUSH1 0x20 ADD PUSH2 0x1D65 PUSH1 0x2D SWAP2 CODECOPY PUSH1 0x0 SLOAD DUP9 DUP9 PUSH2 0xD70 JUMP JUMPDEST PUSH1 0x0 SLOAD SWAP3 POP POP POP SWAP4 SWAP3 POP POP POP JUMP JUMPDEST PUSH1 0x0 ISZERO ISZERO PUSH1 0x6 PUSH1 0x0 CALLER PUSH20 0xFFFFFFFFFFFFFFFFFFFFFFFFFFFFFFFFFFFFFFFF AND PUSH20 0xFFFFFFFFFFFFFFFFFFFFFFFFFFFFFFFFFFFFFFFF AND DUP2 MSTORE PUSH1 0x20 ADD SWAP1 DUP2 MSTORE PUSH1 0x20 ADD PUSH1 0x0 KECCAK256 PUSH1 0x0 SWAP1 SLOAD SWAP1 PUSH2 0x100 EXP SWAP1 DIV PUSH1 0xFF AND ISZERO ISZERO EQ PUSH2 0x62B JUMPI PUSH1 0x0 DUP1 REVERT JUMPDEST PUSH1 0x2 PUSH1 0x0 SWAP1 SLOAD SWAP1 PUSH2 0x100 EXP SWAP1 DIV PUSH20 0xFFFFFFFFFFFFFFFFFFFFFFFFFFFFFFFFFFFFFFFF AND PUSH20 0xFFFFFFFFFFFFFFFFFFFFFFFFFFFFFFFFFFFFFFFF AND CALLER PUSH20 0xFFFFFFFFFFFFFFFFFFFFFFFFFFFFFFFFFFFFFFFF AND SUB PUSH2 0x685 JUMPI PUSH1 0x0 DUP1 REVERT JUMPDEST PUSH1 0x1 PUSH1 0x6 PUSH1 0x0 CALLER PUSH20 0xFFFFFFFFFFFFFFFFFFFFFFFFFFFFFFFFFFFFFFFF AND PUSH20 0xFFFFFFFFFFFFFFFFFFFFFFFFFFFFFFFFFFFFFFFF AND DUP2 MSTORE PUSH1 0x20 ADD SWAP1 DUP2 MSTORE PUSH1 0x20 ADD PUSH1 0x0 KECCAK256 PUSH1 0x0 PUSH2 0x100 EXP DUP2 SLOAD DUP2 PUSH1 0xFF MUL NOT AND SWAP1 DUP4 ISZERO ISZERO MUL OR SWAP1 SSTORE POP PUSH2 0x71C PUSH1 0x40 MLOAD DUP1 PUSH1 0x40 ADD PUSH1 0x40 MSTORE DUP1 PUSH1 0x18 DUP2 MSTORE PUSH1 0x20 ADD PUSH32 0x5061727469636970616E746520257320616E69616469646F0000000000000000 DUP2 MSTORE POP CALLER PUSH2 0xE12 JUMP JUMPDEST JUMP JUMPDEST PUSH1 0x2 PUSH1 0x0 SWAP1 SLOAD SWAP1 PUSH2 0x100 EXP SWAP1 DIV PUSH20 0xFFFFFFFFFFFFFFFFFFFFFFFFFFFFFFFFFFFFFFFF AND PUSH20 0xFFFFFFFFFFFFFFFFFFFFFFFFFFFFFFFFFFFFFFFF AND CALLER PUSH20 0xFFFFFFFFFFFFFFFFFFFFFFFFFFFFFFFFFFFFFFFF AND EQ PUSH2 0x778 JUMPI PUSH1 0x0 DUP1 REVERT JUMPDEST PUSH1 0x0 ISZERO ISZERO PUSH1 0x5 PUSH1 0x0 SWAP1 SLOAD SWAP1 PUSH2 0x100 EXP SWAP1 DIV PUSH1 0xFF AND ISZERO ISZERO EQ PUSH2 0x798 JUMPI PUSH1 0x0 DUP1 REVERT JUMPDEST PUSH32 0x3270B5691AF526F8182C9B4D6C779A3008EDDCEEE1C00CA86BD9E31B4554709 DUP3 DUP3 PUSH1 0x40 MLOAD PUSH2 0x7C9 SWAP3 SWAP2 SWAP1 PUSH2 0x1B55 JUMP JUMPDEST PUSH1 0x40 MLOAD DUP1 SWAP2 SUB SWAP1 LOG1 DUP2 PUSH1 0x3 DUP2 SWAP1 SSTORE POP DUP1 PUSH1 0x4 DUP2 SWAP1 SSTORE POP PUSH1 0x1 PUSH1 0x5 PUSH1 0x0 PUSH2 0x100 EXP DUP2 SLOAD DUP2 PUSH1 0xFF MUL NOT AND SWAP1 DUP4 ISZERO ISZERO MUL OR SWAP1 SSTORE POP PUSH2 0x821 PUSH1 0x40 MLOAD DUP1 PUSH1 0x60 ADD PUSH1 0x40 MSTORE DUP1 PUSH1 0x2A DUP2 MSTORE PUSH1 0x20 ADD PUSH2 0x1D3B PUSH1 0x2A SWAP2 CODECOPY PUSH1 0x3 SLOAD PUSH1 0x4 SLOAD PUSH2 0xEAE JUMP JUMPDEST POP POP JUMP JUMPDEST PUSH1 0x1 ISZERO ISZERO PUSH1 0x6 PUSH1 0x0 CALLER PUSH20 0xFFFFFFFFFFFFFFFFFFFFFFFFFFFFFFFFFFFFFFFF AND PUSH20 0xFFFFFFFFFFFFFFFFFFFFFFFFFFFFFFFFFFFFFFFF AND DUP2 MSTORE PUSH1 0x20 ADD SWAP1 DUP2 MSTORE PUSH1 0x20 ADD PUSH1 0x0 KECCAK256 PUSH1 0x0 SWAP1 SLOAD SWAP1 PUSH2 0x100 EXP SWAP1 DIV PUSH1 0xFF AND ISZERO ISZERO EQ PUSH2 0x882 JUMPI PUSH1 0x0 DUP1 REVERT JUMPDEST PUSH1 0x0 PUSH2 0x88D DUP3 PUSH2 0xF4D JUMP JUMPDEST SWAP1 POP CALLER PUSH20 0xFFFFFFFFFFFFFFFFFFFFFFFFFFFFFFFFFFFFFFFF AND DUP2 PUSH1 0x0 ADD PUSH1 0x0 SWAP1 SLOAD SWAP1 PUSH2 0x100 EXP SWAP1 DIV PUSH20 0xFFFFFFFFFFFFFFFFFFFFFFFFFFFFFFFFFFFFFFFF AND PUSH20 0xFFFFFFFFFFFFFFFFFFFFFFFFFFFFFFFFFFFFFFFF AND SUB PUSH2 0x97F JUMPI PUSH1 0x0 DUP2 PUSH1 0x5 ADD PUSH1 0x1 PUSH2 0x100 EXP DUP2 SLOAD DUP2 PUSH1 0xFF MUL NOT AND SWAP1 DUP4 ISZERO ISZERO MUL OR SWAP1 SSTORE POP PUSH32 0xD8E808805F95552D6DE13372D6C625E6D1AC526F69DE97048077C6C2EED41E74 DUP3 PUSH1 0x40 MLOAD PUSH2 0x932 SWAP2 SWAP1 PUSH2 0x172E JUMP JUMPDEST PUSH1 0x40 MLOAD DUP1 SWAP2 SUB SWAP1 LOG1 PUSH2 0x97A PUSH1 0x40 MLOAD DUP1 PUSH1 0x40 ADD PUSH1 0x40 MSTORE DUP1 PUSH1 0x1E DUP2 MSTORE PUSH1 0x20 ADD PUSH32 0x50726F707565737461205B25735D20726574697261646120706F722025730000 DUP2 MSTORE POP DUP4 CALLER PUSH2 0x1085 JUMP JUMPDEST PUSH2 0x984 JUMP JUMPDEST PUSH1 0x0 DUP1 REVERT JUMPDEST POP POP JUMP JUMPDEST PUSH1 0x1 ISZERO ISZERO PUSH1 0x6 PUSH1 0x0 CALLER PUSH20 0xFFFFFFFFFFFFFFFFFFFFFFFFFFFFFFFFFFFFFFFF AND PUSH20 0xFFFFFFFFFFFFFFFFFFFFFFFFFFFFFFFFFFFFFFFF AND DUP2 MSTORE PUSH1 0x20 ADD SWAP1 DUP2 MSTORE PUSH1 0x20 ADD PUSH1 0x0 KECCAK256 PUSH1 0x0 SWAP1 SLOAD SWAP1 PUSH2 0x100 EXP SWAP1 DIV PUSH1 0xFF AND ISZERO ISZERO EQ PUSH2 0x9E5 JUMPI PUSH1 0x0 DUP1 REVERT JUMPDEST PUSH1 0x1 ISZERO ISZERO PUSH1 0x5 PUSH1 0x0 SWAP1 SLOAD SWAP1 PUSH2 0x100 EXP SWAP1 DIV PUSH1 0xFF AND ISZERO ISZERO EQ PUSH2 0xA05 JUMPI PUSH1 0x0 DUP1 REVERT JUMPDEST PUSH1 0x0 PUSH2 0xA10 DUP4 PUSH2 0xF4D JUMP JUMPDEST SWAP1 POP PUSH1 0x0 DUP2 PUSH1 0x6 ADD PUSH1 0x0 CALLER PUSH20 0xFFFFFFFFFFFFFFFFFFFFFFFFFFFFFFFFFFFFFFFF AND PUSH20 0xFFFFFFFFFFFFFFFFFFFFFFFFFFFFFFFFFFFFFFFF AND DUP2 MSTORE PUSH1 0x20 ADD SWAP1 DUP2 MSTORE PUSH1 0x20 ADD PUSH1 0x0 KECCAK256 SLOAD SWAP1 POP PUSH1 0x0 DUP4 DUP3 PUSH2 0xA66 SWAP2 SWAP1 PUSH2 0x1B7E JUMP JUMPDEST SWAP1 POP DUP1 DUP4 PUSH1 0x6 ADD PUSH1 0x0 CALLER PUSH20 0xFFFFFFFFFFFFFFFFFFFFFFFFFFFFFFFFFFFFFFFF AND PUSH20 0xFFFFFFFFFFFFFFFFFFFFFFFFFFFFFFFFFFFFFFFF AND DUP2 MSTORE PUSH1 0x20 ADD SWAP1 DUP2 MSTORE PUSH1 0x20 ADD PUSH1 0x0 KECCAK256 DUP2 SWAP1 SSTORE POP DUP4 DUP4 PUSH1 0x4 ADD SLOAD PUSH2 0xABE SWAP2 SWAP1 PUSH2 0x1B7E JUMP JUMPDEST DUP4 PUSH1 0x4 ADD DUP2 SWAP1 SSTORE POP DUP3 PUSH1 0x3 ADD SLOAD DUP4 PUSH1 0x4 ADD SLOAD LT PUSH2 0xC15 JUMPI DUP3 PUSH1 0x7 ADD PUSH1 0x0 SWAP1 SLOAD SWAP1 PUSH2 0x100 EXP SWAP1 DIV PUSH20 0xFFFFFFFFFFFFFFFFFFFFFFFFFFFFFFFFFFFFFFFF AND PUSH20 0xFFFFFFFFFFFFFFFFFFFFFFFFFFFFFFFFFFFFFFFF AND PUSH4 0x986CC311 PUSH3 0x186A0 DUP8 DUP7 PUSH1 0x4 ADD SLOAD DUP8 PUSH1 0x3 ADD SLOAD PUSH1 0x40 MLOAD DUP6 PUSH4 0xFFFFFFFF AND PUSH1 0xE0 SHL DUP2 MSTORE PUSH1 0x4 ADD PUSH2 0xB42 SWAP4 SWAP3 SWAP2 SWAP1 PUSH2 0x1BB2 JUMP JUMPDEST PUSH1 0x0 PUSH1 0x40 MLOAD DUP1 DUP4 SUB DUP2 PUSH1 0x0 DUP9 DUP1 EXTCODESIZE ISZERO DUP1 ISZERO PUSH2 0xB5C JUMPI PUSH1 0x0 DUP1 REVERT JUMPDEST POP DUP8 CALL ISZERO DUP1 ISZERO PUSH2 0xB70 JUMPI RETURNDATASIZE PUSH1 0x0 DUP1 RETURNDATACOPY RETURNDATASIZE PUSH1 0x0 REVERT JUMPDEST POP POP POP POP POP PUSH1 0x1 DUP4 PUSH1 0x5 ADD PUSH1 0x0 PUSH2 0x100 EXP DUP2 SLOAD DUP2 PUSH1 0xFF MUL NOT AND SWAP1 DUP4 ISZERO ISZERO MUL OR SWAP1 SSTORE POP PUSH2 0xBD1 PUSH1 0x40 MLOAD DUP1 PUSH1 0x40 ADD PUSH1 0x40 MSTORE DUP1 PUSH1 0x17 DUP2 MSTORE PUSH1 0x20 ADD PUSH32 0x50726F707565737461205B25735D206170726F62616461000000000000000000 DUP2 MSTORE POP DUP7 PUSH2 0x1124 JUMP JUMPDEST PUSH32 0x34470C7E31BBBF1B726DFE76D07293350C82E9F19F51C9FA05859E6F3330B396 DUP6 DUP5 PUSH1 0x4 ADD SLOAD DUP6 PUSH1 0x3 ADD SLOAD PUSH1 0x40 MLOAD PUSH2 0xC0C SWAP4 SWAP3 SWAP2 SWAP1 PUSH2 0x1BB2 JUMP JUMPDEST PUSH1 0x40 MLOAD DUP1 SWAP2 SUB SWAP1 LOG1 JUMPDEST POP POP POP POP POP JUMP JUMPDEST PUSH1 0x2 PUSH1 0x0 SWAP1 SLOAD SWAP1 PUSH2 0x100 EXP SWAP1 DIV PUSH20 0xFFFFFFFFFFFFFFFFFFFFFFFFFFFFFFFFFFFFFFFF AND PUSH20 0xFFFFFFFFFFFFFFFFFFFFFFFFFFFFFFFFFFFFFFFF AND CALLER PUSH20 0xFFFFFFFFFFFFFFFFFFFFFFFFFFFFFFFFFFFFFFFF AND EQ PUSH2 0xC76 JUMPI PUSH1 0x0 DUP1 REVERT JUMPDEST PUSH1 0x1 ISZERO ISZERO PUSH1 0x5 PUSH1 0x0 SWAP1 SLOAD SWAP1 PUSH2 0x100 EXP SWAP1 DIV PUSH1 0xFF AND ISZERO ISZERO EQ PUSH2 0xC96 JUMPI PUSH1 0x0 DUP1 REVERT JUMPDEST PUSH1 0x4 SLOAD TIMESTAMP GT PUSH2 0xCA4 JUMPI PUSH1 0x0 DUP1 REVERT JUMPDEST PUSH32 0x5703C2DBB5386F40B06EE9F3400D3CF4C935BC803C3F56D4B20C4ACA936199E7 PUSH1 0x40 MLOAD PUSH1 0x40 MLOAD DUP1 SWAP2 SUB SWAP1 LOG1 PUSH1 0x0 PUSH1 0x5 PUSH1 0x0 PUSH2 0x100 EXP DUP2 SLOAD DUP2 PUSH1 0xFF MUL NOT AND SWAP1 DUP4 ISZERO ISZERO MUL OR SWAP1 SSTORE POP PUSH2 0xD29 PUSH1 0x40 MLOAD DUP1 PUSH1 0x40 ADD PUSH1 0x40 MSTORE DUP1 PUSH1 0x1E DUP2 MSTORE PUSH1 0x20 ADD PUSH32 0x50726F6365736F20646520766F746163696F6E2066696E616C697A61646F0000 DUP2 MSTORE POP PUSH2 0x11C0 JUMP JUMPDEST JUMP JUMPDEST PUSH1 0x5 PUSH1 0x0 SWAP1 SLOAD SWAP1 PUSH2 0x100 EXP SWAP1 DIV PUSH1 0xFF AND DUP2 JUMP JUMPDEST PUSH1 0x3 SLOAD DUP2 JUMP JUMPDEST PUSH1 0x4 SLOAD DUP2 JUMP JUMPDEST PUSH1 0x2 PUSH1 0x0 SWAP1 SLOAD SWAP1 PUSH2 0x100 EXP SWAP1 DIV PUSH20 0xFFFFFFFFFFFFFFFFFFFFFFFFFFFFFFFFFFFFFFFF AND DUP2 JUMP JUMPDEST PUSH2 0xE0C DUP5 DUP5 DUP5 DUP5 PUSH1 0x40 MLOAD PUSH1 0x24 ADD PUSH2 0xD8A SWAP5 SWAP4 SWAP3 SWAP2 SWAP1 PUSH2 0x1BE9 JUMP JUMPDEST PUSH1 0x40 MLOAD PUSH1 0x20 DUP2 DUP4 SUB SUB DUP2 MSTORE SWAP1 PUSH1 0x40 MSTORE PUSH32 0xC67EA9D100000000000000000000000000000000000000000000000000000000 PUSH28 0xFFFFFFFFFFFFFFFFFFFFFFFFFFFFFFFFFFFFFFFFFFFFFFFFFFFFFFFF NOT AND PUSH1 0x20 DUP3 ADD DUP1 MLOAD PUSH28 0xFFFFFFFFFFFFFFFFFFFFFFFFFFFFFFFFFFFFFFFFFFFFFFFFFFFFFFFF DUP4 DUP2 DUP4 AND OR DUP4 MSTORE POP POP POP POP PUSH2 0x1259 JUMP JUMPDEST POP POP POP POP JUMP JUMPDEST PUSH2 0xEAA DUP3 DUP3 PUSH1 0x40 MLOAD PUSH1 0x24 ADD PUSH2 0xE28 SWAP3 SWAP2 SWAP1 PUSH2 0x1C3C JUMP JUMPDEST PUSH1 0x40 MLOAD PUSH1 0x20 DUP2 DUP4 SUB SUB DUP2 MSTORE SWAP1 PUSH1 0x40 MSTORE PUSH32 0x319AF33300000000000000000000000000000000000000000000000000000000 PUSH28 0xFFFFFFFFFFFFFFFFFFFFFFFFFFFFFFFFFFFFFFFFFFFFFFFFFFFFFFFF NOT AND PUSH1 0x20 DUP3 ADD DUP1 MLOAD PUSH28 0xFFFFFFFFFFFFFFFFFFFFFFFFFFFFFFFFFFFFFFFFFFFFFFFFFFFFFFFF DUP4 DUP2 DUP4 AND OR DUP4 MSTORE POP POP POP POP PUSH2 0x1259 JUMP JUMPDEST POP POP JUMP JUMPDEST PUSH2 0xF48 DUP4 DUP4 DUP4 PUSH1 0x40 MLOAD PUSH1 0x24 ADD PUSH2 0xEC6 SWAP4 SWAP3 SWAP2 SWAP1 PUSH2 0x1C6C JUMP JUMPDEST PUSH1 0x40 MLOAD PUSH1 0x20 DUP2 DUP4 SUB SUB DUP2 MSTORE SWAP1 PUSH1 0x40 MSTORE PUSH32 0xCA47C4EB00000000000000000000000000000000000000000000000000000000 PUSH28 0xFFFFFFFFFFFFFFFFFFFFFFFFFFFFFFFFFFFFFFFFFFFFFFFFFFFFFFFF NOT AND PUSH1 0x20 DUP3 ADD DUP1 MLOAD PUSH28 0xFFFFFFFFFFFFFFFFFFFFFFFFFFFFFFFFFFFFFFFFFFFFFFFFFFFFFFFF DUP4 DUP2 DUP4 AND OR DUP4 MSTORE POP POP POP POP PUSH2 0x1259 JUMP JUMPDEST POP POP POP JUMP JUMPDEST PUSH1 0x0 DUP1 PUSH1 0x0 SWAP1 POP PUSH1 0x0 PUSH1 0x1 DUP1 SLOAD SWAP1 POP SWAP1 POP JUMPDEST DUP4 PUSH1 0x1 DUP4 DUP2 SLOAD DUP2 LT PUSH2 0xF74 JUMPI PUSH2 0xF73 PUSH2 0x1804 JUMP JUMPDEST JUMPDEST SWAP1 PUSH1 0x0 MSTORE PUSH1 0x20 PUSH1 0x0 KECCAK256 SWAP1 PUSH1 0x8 MUL ADD PUSH1 0x1 ADD SLOAD EQ ISZERO DUP1 ISZERO PUSH2 0xF94 JUMPI POP DUP1 DUP3 GT ISZERO JUMPDEST ISZERO PUSH2 0xFAC JUMPI DUP2 DUP1 PUSH2 0xFA4 SWAP1 PUSH2 0x1862 JUMP JUMPDEST SWAP3 POP POP PUSH2 0xF5F JUMP JUMPDEST DUP4 PUSH1 0x1 DUP4 DUP2 SLOAD DUP2 LT PUSH2 0xFC1 JUMPI PUSH2 0xFC0 PUSH2 0x1804 JUMP JUMPDEST JUMPDEST SWAP1 PUSH1 0x0 MSTORE PUSH1 0x20 PUSH1 0x0 KECCAK256 SWAP1 PUSH1 0x8 MUL ADD PUSH1 0x1 ADD SLOAD EQ DUP1 ISZERO PUSH2 0x100F JUMPI POP PUSH1 0x1 DUP3 DUP2 SLOAD DUP2 LT PUSH2 0xFEF JUMPI PUSH2 0xFEE PUSH2 0x1804 JUMP JUMPDEST JUMPDEST SWAP1 PUSH1 0x0 MSTORE PUSH1 0x20 PUSH1 0x0 KECCAK256 SWAP1 PUSH1 0x8 MUL ADD PUSH1 0x5 ADD PUSH1 0x1 SWAP1 SLOAD SWAP1 PUSH2 0x100 EXP SWAP1 DIV PUSH1 0xFF AND JUMPDEST DUP1 ISZERO PUSH2 0x104B JUMPI POP PUSH1 0x1 DUP3 DUP2 SLOAD DUP2 LT PUSH2 0x102A JUMPI PUSH2 0x1029 PUSH2 0x1804 JUMP JUMPDEST JUMPDEST SWAP1 PUSH1 0x0 MSTORE PUSH1 0x20 PUSH1 0x0 KECCAK256 SWAP1 PUSH1 0x8 MUL ADD PUSH1 0x5 ADD PUSH1 0x0 SWAP1 SLOAD SWAP1 PUSH2 0x100 EXP SWAP1 DIV PUSH1 0xFF AND ISZERO JUMPDEST ISZERO PUSH2 0x107B JUMPI PUSH1 0x1 DUP3 DUP2 SLOAD DUP2 LT PUSH2 0x1064 JUMPI PUSH2 0x1063 PUSH2 0x1804 JUMP JUMPDEST JUMPDEST SWAP1 PUSH1 0x0 MSTORE PUSH1 0x20 PUSH1 0x0 KECCAK256 SWAP1 PUSH1 0x8 MUL ADD SWAP3 POP POP POP PUSH2 0x1080 JUMP JUMPDEST PUSH1 0x0 DUP1 REVERT JUMPDEST SWAP2 SWAP1 POP JUMP JUMPDEST PUSH2 0x111F DUP4 DUP4 DUP4 PUSH1 0x40 MLOAD PUSH1 0x24 ADD PUSH2 0x109D SWAP4 SWAP3 SWAP2 SWAP1 PUSH2 0x1CAA JUMP JUMPDEST PUSH1 0x40 MLOAD PUSH1 0x20 DUP2 DUP4 SUB SUB DUP2 MSTORE SWAP1 PUSH1 0x40 MSTORE PUSH32 0x1C7EC44800000000000000000000000000000000000000000000000000000000 PUSH28 0xFFFFFFFFFFFFFFFFFFFFFFFFFFFFFFFFFFFFFFFFFFFFFFFFFFFFFFFF NOT AND PUSH1 0x20 DUP3 ADD DUP1 MLOAD PUSH28 0xFFFFFFFFFFFFFFFFFFFFFFFFFFFFFFFFFFFFFFFFFFFFFFFFFFFFFFFF DUP4 DUP2 DUP4 AND OR DUP4 MSTORE POP POP POP POP PUSH2 0x1259 JUMP JUMPDEST POP POP POP JUMP JUMPDEST PUSH2 0x11BC DUP3 DUP3 PUSH1 0x40 MLOAD PUSH1 0x24 ADD PUSH2 0x113A SWAP3 SWAP2 SWAP1 PUSH2 0x1CE8 JUMP JUMPDEST PUSH1 0x40 MLOAD PUSH1 0x20 DUP2 DUP4 SUB SUB DUP2 MSTORE SWAP1 PUSH1 0x40 MSTORE PUSH32 0xB60E72CC00000000000000000000000000000000000000000000000000000000 PUSH28 0xFFFFFFFFFFFFFFFFFFFFFFFFFFFFFFFFFFFFFFFFFFFFFFFFFFFFFFFF NOT AND PUSH1 0x20 DUP3 ADD DUP1 MLOAD PUSH28 0xFFFFFFFFFFFFFFFFFFFFFFFFFFFFFFFFFFFFFFFFFFFFFFFFFFFFFFFF DUP4 DUP2 DUP4 AND OR DUP4 MSTORE POP POP POP POP PUSH2 0x1259 JUMP JUMPDEST POP POP JUMP JUMPDEST PUSH2 0x1256 DUP2 PUSH1 0x40 MLOAD PUSH1 0x24 ADD PUSH2 0x11D4 SWAP2 SWAP1 PUSH2 0x1D18 JUMP JUMPDEST PUSH1 0x40 MLOAD PUSH1 0x20 DUP2 DUP4 SUB SUB DUP2 MSTORE SWAP1 PUSH1 0x40 MSTORE PUSH32 0x41304FAC00000000000000000000000000000000000000000000000000000000 PUSH28 0xFFFFFFFFFFFFFFFFFFFFFFFFFFFFFFFFFFFFFFFFFFFFFFFFFFFFFFFF NOT AND PUSH1 0x20 DUP3 ADD DUP1 MLOAD PUSH28 0xFFFFFFFFFFFFFFFFFFFFFFFFFFFFFFFFFFFFFFFFFFFFFFFFFFFFFFFF DUP4 DUP2 DUP4 AND OR DUP4 MSTORE POP POP POP POP PUSH2 0x1259 JUMP JUMPDEST POP JUMP JUMPDEST PUSH1 0x0 DUP2 MLOAD SWAP1 POP PUSH1 0x0 PUSH11 0x636F6E736F6C652E6C6F67 SWAP1 POP PUSH1 0x20 DUP4 ADD PUSH1 0x0 DUP1 DUP5 DUP4 DUP6 GAS STATICCALL POP POP POP POP POP JUMP JUMPDEST PUSH1 0x0 PUSH1 0x40 MLOAD SWAP1 POP SWAP1 JUMP JUMPDEST PUSH1 0x0 DUP1 REVERT JUMPDEST PUSH1 0x0 DUP1 REVERT JUMPDEST PUSH1 0x0 DUP2 SWAP1 POP SWAP2 SWAP1 POP JUMP JUMPDEST PUSH2 0x12A9 DUP2 PUSH2 0x1296 JUMP JUMPDEST DUP2 EQ PUSH2 0x12B4 JUMPI PUSH1 0x0 DUP1 REVERT JUMPDEST POP JUMP JUMPDEST PUSH1 0x0 DUP2 CALLDATALOAD SWAP1 POP PUSH2 0x12C6 DUP2 PUSH2 0x12A0 JUMP JUMPDEST SWAP3 SWAP2 POP POP JUMP JUMPDEST PUSH1 0x0 PUSH1 0x20 DUP3 DUP5 SUB SLT ISZERO PUSH2 0x12E2 JUMPI PUSH2 0x12E1 PUSH2 0x128C JUMP JUMPDEST JUMPDEST PUSH1 0x0 PUSH2 0x12F0 DUP5 DUP3 DUP6 ADD PUSH2 0x12B7 JUMP JUMPDEST SWAP2 POP POP SWAP3 SWAP2 POP POP JUMP JUMPDEST PUSH1 0x0 PUSH20 0xFFFFFFFFFFFFFFFFFFFFFFFFFFFFFFFFFFFFFFFF DUP3 AND SWAP1 POP SWAP2 SWAP1 POP JUMP JUMPDEST PUSH1 0x0 PUSH2 0x1324 DUP3 PUSH2 0x12F9 JUMP JUMPDEST SWAP1 POP SWAP2 SWAP1 POP JUMP JUMPDEST PUSH2 0x1334 DUP2 PUSH2 0x1319 JUMP JUMPDEST DUP3 MSTORE POP POP JUMP JUMPDEST PUSH2 0x1343 DUP2 PUSH2 0x1296 JUMP JUMPDEST DUP3 MSTORE POP POP JUMP JUMPDEST PUSH1 0x0 DUP2 MLOAD SWAP1 POP SWAP2 SWAP1 POP JUMP JUMPDEST PUSH1 0x0 DUP3 DUP3 MSTORE PUSH1 0x20 DUP3 ADD SWAP1 POP SWAP3 SWAP2 POP POP JUMP JUMPDEST PUSH1 0x0 JUMPDEST DUP4 DUP2 LT ISZERO PUSH2 0x1383 JUMPI DUP1 DUP3 ADD MLOAD DUP2 DUP5 ADD MSTORE PUSH1 0x20 DUP2 ADD SWAP1 POP PUSH2 0x1368 JUMP JUMPDEST PUSH1 0x0 DUP5 DUP5 ADD MSTORE POP POP POP POP JUMP JUMPDEST PUSH1 0x0 PUSH1 0x1F NOT PUSH1 0x1F DUP4 ADD AND SWAP1 POP SWAP2 SWAP1 POP JUMP JUMPDEST PUSH1 0x0 PUSH2 0x13AB DUP3 PUSH2 0x1349 JUMP JUMPDEST PUSH2 0x13B5 DUP2 DUP6 PUSH2 0x1354 JUMP JUMPDEST SWAP4 POP PUSH2 0x13C5 DUP2 DUP6 PUSH1 0x20 DUP7 ADD PUSH2 0x1365 JUMP JUMPDEST PUSH2 0x13CE DUP2 PUSH2 0x138F JUMP JUMPDEST DUP5 ADD SWAP2 POP POP SWAP3 SWAP2 POP POP JUMP JUMPDEST PUSH1 0x0 DUP2 ISZERO ISZERO SWAP1 POP SWAP2 SWAP1 POP JUMP JUMPDEST PUSH2 0x13EE DUP2 PUSH2 0x13D9 JUMP JUMPDEST DUP3 MSTORE POP POP JUMP JUMPDEST PUSH1 0x0 DUP2 SWAP1 POP SWAP2 SWAP1 POP JUMP JUMPDEST PUSH1 0x0 PUSH2 0x1419 PUSH2 0x1414 PUSH2 0x140F DUP5 PUSH2 0x12F9 JUMP JUMPDEST PUSH2 0x13F4 JUMP JUMPDEST PUSH2 0x12F9 JUMP JUMPDEST SWAP1 POP SWAP2 SWAP1 POP JUMP JUMPDEST PUSH1 0x0 PUSH2 0x142B DUP3 PUSH2 0x13FE JUMP JUMPDEST SWAP1 POP SWAP2 SWAP1 POP JUMP JUMPDEST PUSH1 0x0 PUSH2 0x143D DUP3 PUSH2 0x1420 JUMP JUMPDEST SWAP1 POP SWAP2 SWAP1 POP JUMP JUMPDEST PUSH2 0x144D DUP2 PUSH2 0x1432 JUMP JUMPDEST DUP3 MSTORE POP POP JUMP JUMPDEST PUSH1 0x0 PUSH2 0x100 DUP3 ADD SWAP1 POP PUSH2 0x1469 PUSH1 0x0 DUP4 ADD DUP12 PUSH2 0x132B JUMP JUMPDEST PUSH2 0x1476 PUSH1 0x20 DUP4 ADD DUP11 PUSH2 0x133A JUMP JUMPDEST DUP2 DUP2 SUB PUSH1 0x40 DUP4 ADD MSTORE PUSH2 0x1488 DUP2 DUP10 PUSH2 0x13A0 JUMP JUMPDEST SWAP1 POP PUSH2 0x1497 PUSH1 0x60 DUP4 ADD DUP9 PUSH2 0x133A JUMP JUMPDEST PUSH2 0x14A4 PUSH1 0x80 DUP4 ADD DUP8 PUSH2 0x133A JUMP JUMPDEST PUSH2 0x14B1 PUSH1 0xA0 DUP4 ADD DUP7 PUSH2 0x13E5 JUMP JUMPDEST PUSH2 0x14BE PUSH1 0xC0 DUP4 ADD DUP6 PUSH2 0x13E5 JUMP JUMPDEST PUSH2 0x14CB PUSH1 0xE0 DUP4 ADD DUP5 PUSH2 0x1444 JUMP JUMPDEST SWAP10 SWAP9 POP POP POP POP POP POP POP POP POP JUMP JUMPDEST PUSH2 0x14E1 DUP2 PUSH2 0x1319 JUMP JUMPDEST DUP2 EQ PUSH2 0x14EC JUMPI PUSH1 0x0 DUP1 REVERT JUMPDEST POP JUMP JUMPDEST PUSH1 0x0 DUP2 CALLDATALOAD SWAP1 POP PUSH2 0x14FE DUP2 PUSH2 0x14D8 JUMP JUMPDEST SWAP3 SWAP2 POP POP JUMP JUMPDEST PUSH1 0x0 PUSH1 0x20 DUP3 DUP5 SUB SLT ISZERO PUSH2 0x151A JUMPI PUSH2 0x1519 PUSH2 0x128C JUMP JUMPDEST JUMPDEST PUSH1 0x0 PUSH2 0x1528 DUP5 DUP3 DUP6 ADD PUSH2 0x14EF JUMP JUMPDEST SWAP2 POP POP SWAP3 SWAP2 POP POP JUMP JUMPDEST PUSH1 0x0 PUSH1 0x20 DUP3 ADD SWAP1 POP PUSH2 0x1546 PUSH1 0x0 DUP4 ADD DUP5 PUSH2 0x13E5 JUMP JUMPDEST SWAP3 SWAP2 POP POP JUMP JUMPDEST PUSH1 0x0 DUP1 REVERT JUMPDEST PUSH1 0x0 DUP1 REVERT JUMPDEST PUSH32 0x4E487B7100000000000000000000000000000000000000000000000000000000 PUSH1 0x0 MSTORE PUSH1 0x41 PUSH1 0x4 MSTORE PUSH1 0x24 PUSH1 0x0 REVERT JUMPDEST PUSH2 0x158E DUP3 PUSH2 0x138F JUMP JUMPDEST DUP2 ADD DUP2 DUP2 LT PUSH8 0xFFFFFFFFFFFFFFFF DUP3 GT OR ISZERO PUSH2 0x15AD JUMPI PUSH2 0x15AC PUSH2 0x1556 JUMP JUMPDEST JUMPDEST DUP1 PUSH1 0x40 MSTORE POP POP POP JUMP JUMPDEST PUSH1 0x0 PUSH2 0x15C0 PUSH2 0x1282 JUMP JUMPDEST SWAP1 POP PUSH2 0x15CC DUP3 DUP3 PUSH2 0x1585 JUMP JUMPDEST SWAP2 SWAP1 POP JUMP JUMPDEST PUSH1 0x0 PUSH8 0xFFFFFFFFFFFFFFFF DUP3 GT ISZERO PUSH2 0x15EC JUMPI PUSH2 0x15EB PUSH2 0x1556 JUMP JUMPDEST JUMPDEST PUSH2 0x15F5 DUP3 PUSH2 0x138F JUMP JUMPDEST SWAP1 POP PUSH1 0x20 DUP2 ADD SWAP1 POP SWAP2 SWAP1 POP JUMP JUMPDEST DUP3 DUP2 DUP4 CALLDATACOPY PUSH1 0x0 DUP4 DUP4 ADD MSTORE POP POP POP JUMP JUMPDEST PUSH1 0x0 PUSH2 0x1624 PUSH2 0x161F DUP5 PUSH2 0x15D1 JUMP JUMPDEST PUSH2 0x15B6 JUMP JUMPDEST SWAP1 POP DUP3 DUP2 MSTORE PUSH1 0x20 DUP2 ADD DUP5 DUP5 DUP5 ADD GT ISZERO PUSH2 0x1640 JUMPI PUSH2 0x163F PUSH2 0x1551 JUMP JUMPDEST JUMPDEST PUSH2 0x164B DUP5 DUP3 DUP6 PUSH2 0x1602 JUMP JUMPDEST POP SWAP4 SWAP3 POP POP POP JUMP JUMPDEST PUSH1 0x0 DUP3 PUSH1 0x1F DUP4 ADD SLT PUSH2 0x1668 JUMPI PUSH2 0x1667 PUSH2 0x154C JUMP JUMPDEST JUMPDEST DUP2 CALLDATALOAD PUSH2 0x1678 DUP5 DUP3 PUSH1 0x20 DUP7 ADD PUSH2 0x1611 JUMP JUMPDEST SWAP2 POP POP SWAP3 SWAP2 POP POP JUMP JUMPDEST PUSH1 0x0 PUSH2 0x168C DUP3 PUSH2 0x1319 JUMP JUMPDEST SWAP1 POP SWAP2 SWAP1 POP JUMP JUMPDEST PUSH2 0x169C DUP2 PUSH2 0x1681 JUMP JUMPDEST DUP2 EQ PUSH2 0x16A7 JUMPI PUSH1 0x0 DUP1 REVERT JUMPDEST POP JUMP JUMPDEST PUSH1 0x0 DUP2 CALLDATALOAD SWAP1 POP PUSH2 0x16B9 DUP2 PUSH2 0x1693 JUMP JUMPDEST SWAP3 SWAP2 POP POP JUMP JUMPDEST PUSH1 0x0 DUP1 PUSH1 0x0 PUSH1 0x60 DUP5 DUP7 SUB SLT ISZERO PUSH2 0x16D8 JUMPI PUSH2 0x16D7 PUSH2 0x128C JUMP JUMPDEST JUMPDEST PUSH1 0x0 DUP5 ADD CALLDATALOAD PUSH8 0xFFFFFFFFFFFFFFFF DUP2 GT ISZERO PUSH2 0x16F6 JUMPI PUSH2 0x16F5 PUSH2 0x1291 JUMP JUMPDEST JUMPDEST PUSH2 0x1702 DUP7 DUP3 DUP8 ADD PUSH2 0x1653 JUMP JUMPDEST SWAP4 POP POP PUSH1 0x20 PUSH2 0x1713 DUP7 DUP3 DUP8 ADD PUSH2 0x12B7 JUMP JUMPDEST SWAP3 POP POP PUSH1 0x40 PUSH2 0x1724 DUP7 DUP3 DUP8 ADD PUSH2 0x16AA JUMP JUMPDEST SWAP2 POP POP SWAP3 POP SWAP3 POP SWAP3 JUMP JUMPDEST PUSH1 0x0 PUSH1 0x20 DUP3 ADD SWAP1 POP PUSH2 0x1743 PUSH1 0x0 DUP4 ADD DUP5 PUSH2 0x133A JUMP JUMPDEST SWAP3 SWAP2 POP POP JUMP JUMPDEST PUSH1 0x0 DUP1 PUSH1 0x40 DUP4 DUP6 SUB SLT ISZERO PUSH2 0x1760 JUMPI PUSH2 0x175F PUSH2 0x128C JUMP JUMPDEST JUMPDEST PUSH1 0x0 PUSH2 0x176E DUP6 DUP3 DUP7 ADD PUSH2 0x12B7 JUMP JUMPDEST SWAP3 POP POP PUSH1 0x20 PUSH2 0x177F DUP6 DUP3 DUP7 ADD PUSH2 0x12B7 JUMP JUMPDEST SWAP2 POP POP SWAP3 POP SWAP3 SWAP1 POP JUMP JUMPDEST PUSH1 0x0 PUSH1 0x20 DUP3 ADD SWAP1 POP PUSH2 0x179E PUSH1 0x0 DUP4 ADD DUP5 PUSH2 0x132B JUMP JUMPDEST SWAP3 SWAP2 POP POP JUMP JUMPDEST PUSH32 0x4E487B7100000000000000000000000000000000000000000000000000000000 PUSH1 0x0 MSTORE PUSH1 0x22 PUSH1 0x4 MSTORE PUSH1 0x24 PUSH1 0x0 REVERT JUMPDEST PUSH1 0x0 PUSH1 0x2 DUP3 DIV SWAP1 POP PUSH1 0x1 DUP3 AND DUP1 PUSH2 0x17EB JUMPI PUSH1 0x7F DUP3 AND SWAP2 POP JUMPDEST PUSH1 0x20 DUP3 LT DUP2 SUB PUSH2 0x17FE JUMPI PUSH2 0x17FD PUSH2 0x17A4 JUMP JUMPDEST JUMPDEST POP SWAP2 SWAP1 POP JUMP JUMPDEST PUSH32 0x4E487B7100000000000000000000000000000000000000000000000000000000 PUSH1 0x0 MSTORE PUSH1 0x32 PUSH1 0x4 MSTORE PUSH1 0x24 PUSH1 0x0 REVERT JUMPDEST PUSH32 0x4E487B7100000000000000000000000000000000000000000000000000000000 PUSH1 0x0 MSTORE PUSH1 0x11 PUSH1 0x4 MSTORE PUSH1 0x24 PUSH1 0x0 REVERT JUMPDEST PUSH1 0x0 PUSH2 0x186D DUP3 PUSH2 0x1296 JUMP JUMPDEST SWAP2 POP PUSH32 0xFFFFFFFFFFFFFFFFFFFFFFFFFFFFFFFFFFFFFFFFFFFFFFFFFFFFFFFFFFFFFFFF DUP3 SUB PUSH2 0x189F JUMPI PUSH2 0x189E PUSH2 0x1833 JUMP JUMPDEST JUMPDEST PUSH1 0x1 DUP3 ADD SWAP1 POP SWAP2 SWAP1 POP JUMP JUMPDEST PUSH1 0x0 DUP2 SWAP1 POP DUP2 PUSH1 0x0 MSTORE PUSH1 0x20 PUSH1 0x0 KECCAK256 SWAP1 POP SWAP2 SWAP1 POP JUMP JUMPDEST PUSH1 0x0 PUSH1 0x20 PUSH1 0x1F DUP4 ADD DIV SWAP1 POP SWAP2 SWAP1 POP JUMP JUMPDEST PUSH1 0x0 DUP3 DUP3 SHL SWAP1 POP SWAP3 SWAP2 POP POP JUMP JUMPDEST PUSH1 0x0 PUSH1 0x8 DUP4 MUL PUSH2 0x190C PUSH32 0xFFFFFFFFFFFFFFFFFFFFFFFFFFFFFFFFFFFFFFFFFFFFFFFFFFFFFFFFFFFFFFFF DUP3 PUSH2 0x18CF JUMP JUMPDEST PUSH2 0x1916 DUP7 DUP4 PUSH2 0x18CF JUMP JUMPDEST SWAP6 POP DUP1 NOT DUP5 AND SWAP4 POP DUP1 DUP7 AND DUP5 OR SWAP3 POP POP POP SWAP4 SWAP3 POP POP POP JUMP JUMPDEST PUSH1 0x0 PUSH2 0x1949 PUSH2 0x1944 PUSH2 0x193F DUP5 PUSH2 0x1296 JUMP JUMPDEST PUSH2 0x13F4 JUMP JUMPDEST PUSH2 0x1296 JUMP JUMPDEST SWAP1 POP SWAP2 SWAP1 POP JUMP JUMPDEST PUSH1 0x0 DUP2 SWAP1 POP SWAP2 SWAP1 POP JUMP JUMPDEST PUSH2 0x1963 DUP4 PUSH2 0x192E JUMP JUMPDEST PUSH2 0x1977 PUSH2 0x196F DUP3 PUSH2 0x1950 JUMP JUMPDEST DUP5 DUP5 SLOAD PUSH2 0x18DC JUMP JUMPDEST DUP3 SSTORE POP POP POP POP JUMP JUMPDEST PUSH1 0x0 SWAP1 JUMP JUMPDEST PUSH2 0x198C PUSH2 0x197F JUMP JUMPDEST PUSH2 0x1997 DUP2 DUP5 DUP5 PUSH2 0x195A JUMP JUMPDEST POP POP POP JUMP JUMPDEST JUMPDEST DUP2 DUP2 LT ISZERO PUSH2 0x19BB JUMPI PUSH2 0x19B0 PUSH1 0x0 DUP3 PUSH2 0x1984 JUMP JUMPDEST PUSH1 0x1 DUP2 ADD SWAP1 POP PUSH2 0x199D JUMP JUMPDEST POP POP JUMP JUMPDEST PUSH1 0x1F DUP3 GT ISZERO PUSH2 0x1A00 JUMPI PUSH2 0x19D1 DUP2 PUSH2 0x18AA JUMP JUMPDEST PUSH2 0x19DA DUP5 PUSH2 0x18BF JUMP JUMPDEST DUP2 ADD PUSH1 0x20 DUP6 LT ISZERO PUSH2 0x19E9 JUMPI DUP2 SWAP1 POP JUMPDEST PUSH2 0x19FD PUSH2 0x19F5 DUP6 PUSH2 0x18BF JUMP JUMPDEST DUP4 ADD DUP3 PUSH2 0x199C JUMP JUMPDEST POP POP JUMPDEST POP POP POP JUMP JUMPDEST PUSH1 0x0 DUP3 DUP3 SHR SWAP1 POP SWAP3 SWAP2 POP POP JUMP JUMPDEST PUSH1 0x0 PUSH2 0x1A23 PUSH1 0x0 NOT DUP5 PUSH1 0x8 MUL PUSH2 0x1A05 JUMP JUMPDEST NOT DUP1 DUP4 AND SWAP2 POP POP SWAP3 SWAP2 POP POP JUMP JUMPDEST PUSH1 0x0 PUSH2 0x1A3C DUP4 DUP4 PUSH2 0x1A12 JUMP JUMPDEST SWAP2 POP DUP3 PUSH1 0x2 MUL DUP3 OR SWAP1 POP SWAP3 SWAP2 POP POP JUMP JUMPDEST PUSH2 0x1A55 DUP3 PUSH2 0x1349 JUMP JUMPDEST PUSH8 0xFFFFFFFFFFFFFFFF DUP2 GT ISZERO PUSH2 0x1A6E JUMPI PUSH2 0x1A6D PUSH2 0x1556 JUMP JUMPDEST JUMPDEST PUSH2 0x1A78 DUP3 SLOAD PUSH2 0x17D3 JUMP JUMPDEST PUSH2 0x1A83 DUP3 DUP3 DUP6 PUSH2 0x19BF JUMP JUMPDEST PUSH1 0x0 PUSH1 0x20 SWAP1 POP PUSH1 0x1F DUP4 GT PUSH1 0x1 DUP2 EQ PUSH2 0x1AB6 JUMPI PUSH1 0x0 DUP5 ISZERO PUSH2 0x1AA4 JUMPI DUP3 DUP8 ADD MLOAD SWAP1 POP JUMPDEST PUSH2 0x1AAE DUP6 DUP3 PUSH2 0x1A30 JUMP JUMPDEST DUP7 SSTORE POP PUSH2 0x1B16 JUMP JUMPDEST PUSH1 0x1F NOT DUP5 AND PUSH2 0x1AC4 DUP7 PUSH2 0x18AA JUMP JUMPDEST PUSH1 0x0 JUMPDEST DUP3 DUP2 LT ISZERO PUSH2 0x1AEC JUMPI DUP5 DUP10 ADD MLOAD DUP3 SSTORE PUSH1 0x1 DUP3 ADD SWAP2 POP PUSH1 0x20 DUP6 ADD SWAP5 POP PUSH1 0x20 DUP2 ADD SWAP1 POP PUSH2 0x1AC7 JUMP JUMPDEST DUP7 DUP4 LT ISZERO PUSH2 0x1B09 JUMPI DUP5 DUP10 ADD MLOAD PUSH2 0x1B05 PUSH1 0x1F DUP10 AND DUP3 PUSH2 0x1A12 JUMP JUMPDEST DUP4 SSTORE POP JUMPDEST PUSH1 0x1 PUSH1 0x2 DUP9 MUL ADD DUP9 SSTORE POP POP POP JUMPDEST POP POP POP POP POP POP JUMP JUMPDEST PUSH1 0x0 PUSH1 0x60 DUP3 ADD SWAP1 POP PUSH2 0x1B33 PUSH1 0x0 DUP4 ADD DUP7 PUSH2 0x133A JUMP JUMPDEST PUSH2 0x1B40 PUSH1 0x20 DUP4 ADD DUP6 PUSH2 0x132B JUMP JUMPDEST PUSH2 0x1B4D PUSH1 0x40 DUP4 ADD DUP5 PUSH2 0x133A JUMP JUMPDEST SWAP5 SWAP4 POP POP POP POP JUMP JUMPDEST PUSH1 0x0 PUSH1 0x40 DUP3 ADD SWAP1 POP PUSH2 0x1B6A PUSH1 0x0 DUP4 ADD DUP6 PUSH2 0x133A JUMP JUMPDEST PUSH2 0x1B77 PUSH1 0x20 DUP4 ADD DUP5 PUSH2 0x133A JUMP JUMPDEST SWAP4 SWAP3 POP POP POP JUMP JUMPDEST PUSH1 0x0 PUSH2 0x1B89 DUP3 PUSH2 0x1296 JUMP JUMPDEST SWAP2 POP PUSH2 0x1B94 DUP4 PUSH2 0x1296 JUMP JUMPDEST SWAP3 POP DUP3 DUP3 ADD SWAP1 POP DUP1 DUP3 GT ISZERO PUSH2 0x1BAC JUMPI PUSH2 0x1BAB PUSH2 0x1833 JUMP JUMPDEST JUMPDEST SWAP3 SWAP2 POP POP JUMP JUMPDEST PUSH1 0x0 PUSH1 0x60 DUP3 ADD SWAP1 POP PUSH2 0x1BC7 PUSH1 0x0 DUP4 ADD DUP7 PUSH2 0x133A JUMP JUMPDEST PUSH2 0x1BD4 PUSH1 0x20 DUP4 ADD DUP6 PUSH2 0x133A JUMP JUMPDEST PUSH2 0x1BE1 PUSH1 0x40 DUP4 ADD DUP5 PUSH2 0x133A JUMP JUMPDEST SWAP5 SWAP4 POP POP POP POP JUMP JUMPDEST PUSH1 0x0 PUSH1 0x80 DUP3 ADD SWAP1 POP DUP2 DUP2 SUB PUSH1 0x0 DUP4 ADD MSTORE PUSH2 0x1C03 DUP2 DUP8 PUSH2 0x13A0 JUMP JUMPDEST SWAP1 POP PUSH2 0x1C12 PUSH1 0x20 DUP4 ADD DUP7 PUSH2 0x133A JUMP JUMPDEST DUP2 DUP2 SUB PUSH1 0x40 DUP4 ADD MSTORE PUSH2 0x1C24 DUP2 DUP6 PUSH2 0x13A0 JUMP JUMPDEST SWAP1 POP PUSH2 0x1C33 PUSH1 0x60 DUP4 ADD DUP5 PUSH2 0x133A JUMP JUMPDEST SWAP6 SWAP5 POP POP POP POP POP JUMP JUMPDEST PUSH1 0x0 PUSH1 0x40 DUP3 ADD SWAP1 POP DUP2 DUP2 SUB PUSH1 0x0 DUP4 ADD MSTORE PUSH2 0x1C56 DUP2 DUP6 PUSH2 0x13A0 JUMP JUMPDEST SWAP1 POP PUSH2 0x1C65 PUSH1 0x20 DUP4 ADD DUP5 PUSH2 0x132B JUMP JUMPDEST SWAP4 SWAP3 POP POP POP JUMP JUMPDEST PUSH1 0x0 PUSH1 0x60 DUP3 ADD SWAP1 POP DUP2 DUP2 SUB PUSH1 0x0 DUP4 ADD MSTORE PUSH2 0x1C86 DUP2 DUP7 PUSH2 0x13A0 JUMP JUMPDEST SWAP1 POP PUSH2 0x1C95 PUSH1 0x20 DUP4 ADD DUP6 PUSH2 0x133A JUMP JUMPDEST PUSH2 0x1CA2 PUSH1 0x40 DUP4 ADD DUP5 PUSH2 0x133A JUMP JUMPDEST SWAP5 SWAP4 POP POP POP POP JUMP JUMPDEST PUSH1 0x0 PUSH1 0x60 DUP3 ADD SWAP1 POP DUP2 DUP2 SUB PUSH1 0x0 DUP4 ADD MSTORE PUSH2 0x1CC4 DUP2 DUP7 PUSH2 0x13A0 JUMP JUMPDEST SWAP1 POP PUSH2 0x1CD3 PUSH1 0x20 DUP4 ADD DUP6 PUSH2 0x133A JUMP JUMPDEST PUSH2 0x1CE0 PUSH1 0x40 DUP4 ADD DUP5 PUSH2 0x132B JUMP JUMPDEST SWAP5 SWAP4 POP POP POP POP JUMP JUMPDEST PUSH1 0x0 PUSH1 0x40 DUP3 ADD SWAP1 POP DUP2 DUP2 SUB PUSH1 0x0 DUP4 ADD MSTORE PUSH2 0x1D02 DUP2 DUP6 PUSH2 0x13A0 JUMP JUMPDEST SWAP1 POP PUSH2 0x1D11 PUSH1 0x20 DUP4 ADD DUP5 PUSH2 0x133A JUMP JUMPDEST SWAP4 SWAP3 POP POP POP JUMP JUMPDEST PUSH1 0x0 PUSH1 0x20 DUP3 ADD SWAP1 POP DUP2 DUP2 SUB PUSH1 0x0 DUP4 ADD MSTORE PUSH2 0x1D32 DUP2 DUP5 PUSH2 0x13A0 JUMP JUMPDEST SWAP1 POP SWAP3 SWAP2 POP POP JUMP INVALID PUSH17 0x726F6365736F20646520766F746163696F PUSH15 0x20696E69636961646F20656E747265 KECCAK256 0x25 PUSH20 0x207920257350726F707565737461205B25735D20 0x25 PUSH20 0x20636F6E20707265737570756573746F20257320 PUSH2 0x6E69 PUSH2 0x6469 PUSH5 0x6FA2646970 PUSH7 0x7358221220DDEC TIMESTAMP 0xD8 PUSH10 0x2F96258DA5C51155C11B 0x5C PC 0x23 0x2E 0xA8 SWAP7 LOG3 CODESIZE 0x29 0xDE 0xCC ADDRESS GT PUSH14 0x3C56E964736F6C63430008120033 "
		},
		"gasEstimates": {
			"creation": {
				"codeDepositCost": "1524600",
				"executionCost": "30868",
				"totalCost": "1555468"
			},
			"external": {
				"administrator()": "2624",
				"aniadirParticipante()": "infinite",
				"aniadirPropuesta(string,uint256,address)": "infinite",
				"endDateVoting()": "2517",
				"finalizarVotacion()": "infinite",
				"iniciarVotacion(uint256,uint256)": "infinite",
				"participants(address)": "2868",
				"proposals(uint256)": "infinite",
				"retirarPropuesta(uint256)": "infinite",
				"startDateVoting()": "2495",
				"votar(uint256,uint256)": "infinite",
				"votingStarted()": "2515"
			},
			"internal": {
				"findActiveNotApprovedProposal(uint256)": "infinite"
			}
		},
		"methodIdentifiers": {
			"administrator()": "f53d0a8e",
			"aniadirParticipante()": "17657a1c",
			"aniadirPropuesta(string,uint256,address)": "170f8d1f",
			"endDateVoting()": "c0658864",
			"finalizarVotacion()": "67095dd8",
			"iniciarVotacion(uint256,uint256)": "1c64b8a0",
			"participants(address)": "09e69ede",
			"proposals(uint256)": "013cf08b",
			"retirarPropuesta(uint256)": "2295f243",
			"startDateVoting()": "9fa3b30b",
			"votar(uint256,uint256)": "4fa5a16f",
			"votingStarted()": "83d948b7"
		}
	},
	"abi": [
		{
			"inputs": [],
			"stateMutability": "nonpayable",
			"type": "constructor"
		},
		{
			"anonymous": false,
			"inputs": [],
			"name": "FinVotacion",
			"type": "event"
		},
		{
			"anonymous": false,
			"inputs": [
				{
					"indexed": false,
					"internalType": "uint256",
					"name": "startDate",
					"type": "uint256"
				},
				{
					"indexed": false,
					"internalType": "uint256",
					"name": "endDate",
					"type": "uint256"
				}
			],
			"name": "InicioVotacion",
			"type": "event"
		},
		{
			"anonymous": false,
			"inputs": [
				{
					"indexed": false,
					"internalType": "uint256",
					"name": "propId",
					"type": "uint256"
				},
				{
					"indexed": false,
					"internalType": "address",
					"name": "propOwner",
					"type": "address"
				},
				{
					"indexed": false,
					"internalType": "uint256",
					"name": "budget",
					"type": "uint256"
				}
			],
			"name": "NuevaPropuesta",
			"type": "event"
		},
		{
			"anonymous": false,
			"inputs": [
				{
					"indexed": false,
					"internalType": "uint256",
					"name": "propId",
					"type": "uint256"
				},
				{
					"indexed": false,
					"internalType": "uint256",
					"name": "numVotes",
					"type": "uint256"
				},
				{
					"indexed": false,
					"internalType": "uint256",
					"name": "numTokens",
					"type": "uint256"
				}
			],
			"name": "PropuestaAprobada",
			"type": "event"
		},
		{
			"anonymous": false,
			"inputs": [
				{
					"indexed": false,
					"internalType": "uint256",
					"name": "propId",
					"type": "uint256"
				}
			],
			"name": "PropuestaRetirada",
			"type": "event"
		},
		{
			"inputs": [],
			"name": "administrator",
			"outputs": [
				{
					"internalType": "address",
					"name": "",
					"type": "address"
				}
			],
			"stateMutability": "view",
			"type": "function"
		},
		{
			"inputs": [],
			"name": "aniadirParticipante",
			"outputs": [],
			"stateMutability": "nonpayable",
			"type": "function"
		},
		{
			"inputs": [
				{
					"internalType": "string",
					"name": "descr",
					"type": "string"
				},
				{
					"internalType": "uint256",
					"name": "budget",
					"type": "uint256"
				},
				{
					"internalType": "contract IExecutableProposal",
					"name": "exec",
					"type": "address"
				}
			],
			"name": "aniadirPropuesta",
			"outputs": [
				{
					"internalType": "uint256",
					"name": "",
					"type": "uint256"
				}
			],
			"stateMutability": "nonpayable",
			"type": "function"
		},
		{
			"inputs": [],
			"name": "endDateVoting",
			"outputs": [
				{
					"internalType": "uint256",
					"name": "",
					"type": "uint256"
				}
			],
			"stateMutability": "view",
			"type": "function"
		},
		{
			"inputs": [],
			"name": "finalizarVotacion",
			"outputs": [],
			"stateMutability": "nonpayable",
			"type": "function"
		},
		{
			"inputs": [
				{
					"internalType": "uint256",
					"name": "startDate",
					"type": "uint256"
				},
				{
					"internalType": "uint256",
					"name": "endDate",
					"type": "uint256"
				}
			],
			"name": "iniciarVotacion",
			"outputs": [],
			"stateMutability": "nonpayable",
			"type": "function"
		},
		{
			"inputs": [
				{
					"internalType": "address",
					"name": "",
					"type": "address"
				}
			],
			"name": "participants",
			"outputs": [
				{
					"internalType": "bool",
					"name": "",
					"type": "bool"
				}
			],
			"stateMutability": "view",
			"type": "function"
		},
		{
			"inputs": [
				{
					"internalType": "uint256",
					"name": "",
					"type": "uint256"
				}
			],
			"name": "proposals",
			"outputs": [
				{
					"internalType": "address",
					"name": "owner",
					"type": "address"
				},
				{
					"internalType": "uint256",
					"name": "id",
					"type": "uint256"
				},
				{
					"internalType": "string",
					"name": "description",
					"type": "string"
				},
				{
					"internalType": "uint256",
					"name": "budget",
					"type": "uint256"
				},
				{
					"internalType": "uint256",
					"name": "votes",
					"type": "uint256"
				},
				{
					"internalType": "bool",
					"name": "approved",
					"type": "bool"
				},
				{
					"internalType": "bool",
					"name": "active",
					"type": "bool"
				},
				{
					"internalType": "contract IExecutableProposal",
					"name": "executable",
					"type": "address"
				}
			],
			"stateMutability": "view",
			"type": "function"
		},
		{
			"inputs": [
				{
					"internalType": "uint256",
					"name": "propId",
					"type": "uint256"
				}
			],
			"name": "retirarPropuesta",
			"outputs": [],
			"stateMutability": "nonpayable",
			"type": "function"
		},
		{
			"inputs": [],
			"name": "startDateVoting",
			"outputs": [
				{
					"internalType": "uint256",
					"name": "",
					"type": "uint256"
				}
			],
			"stateMutability": "view",
			"type": "function"
		},
		{
			"inputs": [
				{
					"internalType": "uint256",
					"name": "propId",
					"type": "uint256"
				},
				{
					"internalType": "uint256",
					"name": "numVotes",
					"type": "uint256"
				}
			],
			"name": "votar",
			"outputs": [],
			"stateMutability": "nonpayable",
			"type": "function"
		},
		{
			"inputs": [],
			"name": "votingStarted",
			"outputs": [
				{
					"internalType": "bool",
					"name": "",
					"type": "bool"
				}
			],
			"stateMutability": "view",
			"type": "function"
		}
	]
}