{
	"DAO/VotingDAO.sol": {
		"VotingDAO": {
			"abi": [
				{
					"inputs": [],
					"stateMutability": "nonpayable",
					"type": "constructor"
				},
				{
					"anonymous": false,
					"inputs": [],
					"name": "FinVotacion",
					"type": "event"
				},
				{
					"anonymous": false,
					"inputs": [
						{
							"indexed": false,
							"internalType": "uint256",
							"name": "startDate",
							"type": "uint256"
						},
						{
							"indexed": false,
							"internalType": "uint256",
							"name": "endDate",
							"type": "uint256"
						}
					],
					"name": "InicioVotacion",
					"type": "event"
				},
				{
					"anonymous": false,
					"inputs": [
						{
							"indexed": false,
							"internalType": "uint256",
							"name": "propId",
							"type": "uint256"
						},
						{
							"indexed": false,
							"internalType": "address",
							"name": "propOwner",
							"type": "address"
						},
						{
							"indexed": false,
							"internalType": "uint256",
							"name": "budget",
							"type": "uint256"
						}
					],
					"name": "NuevaPropuesta",
					"type": "event"
				},
				{
					"anonymous": false,
					"inputs": [
						{
							"indexed": false,
							"internalType": "uint256",
							"name": "propId",
							"type": "uint256"
						},
						{
							"indexed": false,
							"internalType": "uint256",
							"name": "numVotes",
							"type": "uint256"
						},
						{
							"indexed": false,
							"internalType": "uint256",
							"name": "numTokens",
							"type": "uint256"
						}
					],
					"name": "PropuestaAprobada",
					"type": "event"
				},
				{
					"anonymous": false,
					"inputs": [
						{
							"indexed": false,
							"internalType": "uint256",
							"name": "propId",
							"type": "uint256"
						}
					],
					"name": "PropuestaRetirada",
					"type": "event"
				},
				{
					"inputs": [],
					"name": "aniadirParticipante",
					"outputs": [],
					"stateMutability": "nonpayable",
					"type": "function"
				},
				{
					"inputs": [
						{
							"internalType": "string",
							"name": "descr",
							"type": "string"
						},
						{
							"internalType": "uint256",
							"name": "budget",
							"type": "uint256"
						},
						{
							"internalType": "contract IExecutableProposal",
							"name": "exec",
							"type": "address"
						}
					],
					"name": "aniadirPropuesta",
					"outputs": [
						{
							"internalType": "uint256",
							"name": "",
							"type": "uint256"
						}
					],
					"stateMutability": "nonpayable",
					"type": "function"
				},
				{
					"inputs": [],
					"name": "finalizarVotacion",
					"outputs": [],
					"stateMutability": "nonpayable",
					"type": "function"
				},
				{
					"inputs": [
						{
							"internalType": "uint256",
							"name": "startDate",
							"type": "uint256"
						},
						{
							"internalType": "uint256",
							"name": "endDate",
							"type": "uint256"
						}
					],
					"name": "iniciarVotacion",
					"outputs": [],
					"stateMutability": "nonpayable",
					"type": "function"
				},
				{
					"inputs": [
						{
							"internalType": "uint256",
							"name": "propId",
							"type": "uint256"
						}
					],
					"name": "retirarPropuesta",
					"outputs": [],
					"stateMutability": "nonpayable",
					"type": "function"
				},
				{
					"inputs": [
						{
							"internalType": "uint256",
							"name": "propId",
							"type": "uint256"
						},
						{
							"internalType": "uint256",
							"name": "numVotes",
							"type": "uint256"
						}
					],
					"name": "votar",
					"outputs": [],
					"stateMutability": "nonpayable",
					"type": "function"
				}
			],
			"devdoc": {
				"kind": "dev",
				"methods": {},
				"version": 1
			},
			"evm": {
				"assembly": "    /* \"DAO/VotingDAO.sol\":139:3113  contract VotingDAO is IVoting {... */\n  mstore(0x40, 0x80)\n    /* \"DAO/VotingDAO.sol\":199:200  0 */\n  0x00\n    /* \"DAO/VotingDAO.sol\":176:200  uint proposalCounter = 0 */\n  dup1\n  sstore\n    /* \"DAO/VotingDAO.sol\":1671:1728  constructor() {... */\n  callvalue\n  dup1\n  iszero\n  tag_1\n  jumpi\n  0x00\n  dup1\n  revert\ntag_1:\n  pop\n    /* \"DAO/VotingDAO.sol\":1711:1721  msg.sender */\n  caller\n    /* \"DAO/VotingDAO.sol\":1695:1708  administrator */\n  0x02\n  0x00\n    /* \"DAO/VotingDAO.sol\":1695:1721  administrator = msg.sender */\n  0x0100\n  exp\n  dup2\n  sload\n  dup2\n  0xffffffffffffffffffffffffffffffffffffffff\n  mul\n  not\n  and\n  swap1\n  dup4\n  0xffffffffffffffffffffffffffffffffffffffff\n  and\n  mul\n  or\n  swap1\n  sstore\n  pop\n    /* \"DAO/VotingDAO.sol\":139:3113  contract VotingDAO is IVoting {... */\n  dataSize(sub_0)\n  dup1\n  dataOffset(sub_0)\n  0x00\n  codecopy\n  0x00\n  return\nstop\n\nsub_0: assembly {\n        /* \"DAO/VotingDAO.sol\":139:3113  contract VotingDAO is IVoting {... */\n      mstore(0x40, 0x80)\n      callvalue\n      dup1\n      iszero\n      tag_1\n      jumpi\n      0x00\n      dup1\n      revert\n    tag_1:\n      pop\n      jumpi(tag_2, lt(calldatasize, 0x04))\n      shr(0xe0, calldataload(0x00))\n      dup1\n      0x170f8d1f\n      eq\n      tag_3\n      jumpi\n      dup1\n      0x17657a1c\n      eq\n      tag_4\n      jumpi\n      dup1\n      0x1c64b8a0\n      eq\n      tag_5\n      jumpi\n      dup1\n      0x2295f243\n      eq\n      tag_6\n      jumpi\n      dup1\n      0x4fa5a16f\n      eq\n      tag_7\n      jumpi\n      dup1\n      0x67095dd8\n      eq\n      tag_8\n      jumpi\n    tag_2:\n      0x00\n      dup1\n      revert\n        /* \"DAO/VotingDAO.sol\":2341:2867  function aniadirPropuesta(string memory descr, uint budget, IExecutableProposal exec) isParticipant votingIsStarted external override returns (uint) {... */\n    tag_3:\n      tag_9\n      0x04\n      dup1\n      calldatasize\n      sub\n      dup2\n      add\n      swap1\n      tag_10\n      swap2\n      swap1\n      tag_11\n      jump\t// in\n    tag_10:\n      tag_12\n      jump\t// in\n    tag_9:\n      mload(0x40)\n      tag_13\n      swap2\n      swap1\n      tag_14\n      jump\t// in\n    tag_13:\n      mload(0x40)\n      dup1\n      swap2\n      sub\n      swap1\n      return\n        /* \"DAO/VotingDAO.sol\":2213:2335  function aniadirParticipante() isNotParticipant noAdmin external override {... */\n    tag_4:\n      tag_15\n      tag_16\n      jump\t// in\n    tag_15:\n      stop\n        /* \"DAO/VotingDAO.sol\":1734:2046  function iniciarVotacion(uint startDate, uint endDate) onlyAdmin votingIsNotStarted external override {... */\n    tag_5:\n      tag_17\n      0x04\n      dup1\n      calldatasize\n      sub\n      dup2\n      add\n      swap1\n      tag_18\n      swap2\n      swap1\n      tag_19\n      jump\t// in\n    tag_18:\n      tag_20\n      jump\t// in\n    tag_17:\n      stop\n        /* \"DAO/VotingDAO.sol\":2877:2982  function retirarPropuesta(uint propId) external override {... */\n    tag_6:\n      tag_21\n      0x04\n      dup1\n      calldatasize\n      sub\n      dup2\n      add\n      swap1\n      tag_22\n      swap2\n      swap1\n      tag_23\n      jump\t// in\n    tag_22:\n      tag_24\n      jump\t// in\n    tag_21:\n      stop\n        /* \"DAO/VotingDAO.sol\":2992:3111  function votar(uint propId, uint numVotes) votingIsStarted external override {... */\n    tag_7:\n      tag_25\n      0x04\n      dup1\n      calldatasize\n      sub\n      dup2\n      add\n      swap1\n      tag_26\n      swap2\n      swap1\n      tag_19\n      jump\t// in\n    tag_26:\n      tag_27\n      jump\t// in\n    tag_25:\n      stop\n        /* \"DAO/VotingDAO.sol\":2052:2207  function finalizarVotacion() onlyAdmin votingIsStarted votingIsExpired external override {... */\n    tag_8:\n      tag_28\n      tag_29\n      jump\t// in\n    tag_28:\n      stop\n        /* \"DAO/VotingDAO.sol\":2341:2867  function aniadirPropuesta(string memory descr, uint budget, IExecutableProposal exec) isParticipant votingIsStarted external override returns (uint) {... */\n    tag_12:\n        /* \"DAO/VotingDAO.sol\":2484:2488  uint */\n      0x00\n        /* \"DAO/VotingDAO.sol\":1060:1064  true */\n      0x01\n        /* \"DAO/VotingDAO.sol\":1032:1064  participants[msg.sender] == true */\n      iszero\n      iszero\n        /* \"DAO/VotingDAO.sol\":1032:1044  participants */\n      0x06\n        /* \"DAO/VotingDAO.sol\":1032:1056  participants[msg.sender] */\n      0x00\n        /* \"DAO/VotingDAO.sol\":1045:1055  msg.sender */\n      caller\n        /* \"DAO/VotingDAO.sol\":1032:1056  participants[msg.sender] */\n      0xffffffffffffffffffffffffffffffffffffffff\n      and\n      0xffffffffffffffffffffffffffffffffffffffff\n      and\n      dup2\n      mstore\n      0x20\n      add\n      swap1\n      dup2\n      mstore\n      0x20\n      add\n      0x00\n      keccak256\n      0x00\n      swap1\n      sload\n      swap1\n      0x0100\n      exp\n      swap1\n      div\n      0xff\n      and\n        /* \"DAO/VotingDAO.sol\":1032:1064  participants[msg.sender] == true */\n      iszero\n      iszero\n      eq\n        /* \"DAO/VotingDAO.sol\":1023:1065  require (participants[msg.sender] == true) */\n      tag_31\n      jumpi\n      0x00\n      dup1\n      revert\n    tag_31:\n        /* \"DAO/VotingDAO.sol\":861:865  true */\n      0x01\n        /* \"DAO/VotingDAO.sol\":844:865  votingStarted == true */\n      iszero\n      iszero\n        /* \"DAO/VotingDAO.sol\":844:857  votingStarted */\n      0x05\n      0x00\n      swap1\n      sload\n      swap1\n      0x0100\n      exp\n      swap1\n      div\n      0xff\n      and\n        /* \"DAO/VotingDAO.sol\":844:865  votingStarted == true */\n      iszero\n      iszero\n      eq\n        /* \"DAO/VotingDAO.sol\":835:866  require (votingStarted == true) */\n      tag_33\n      jumpi\n      0x00\n      dup1\n      revert\n    tag_33:\n        /* \"DAO/VotingDAO.sol\":2500:2515  proposalCounter */\n      0x00\n      dup1\n        /* \"DAO/VotingDAO.sol\":2500:2517  proposalCounter++ */\n      dup2\n      sload\n      dup1\n      swap3\n      swap2\n      swap1\n      tag_35\n      swap1\n      tag_36\n      jump\t// in\n    tag_35:\n      swap2\n      swap1\n      pop\n      sstore\n      pop\n        /* \"DAO/VotingDAO.sol\":2527:2554  Proposal memory newProposal */\n      tag_37\n      tag_38\n      jump\t// in\n    tag_37:\n        /* \"DAO/VotingDAO.sol\":2581:2596  proposalCounter */\n      sload(0x00)\n        /* \"DAO/VotingDAO.sol\":2564:2575  newProposal */\n      dup2\n        /* \"DAO/VotingDAO.sol\":2564:2578  newProposal.id */\n      0x00\n      add\n        /* \"DAO/VotingDAO.sol\":2564:2596  newProposal.id = proposalCounter */\n      dup2\n      dup2\n      mstore\n      pop\n      pop\n        /* \"DAO/VotingDAO.sol\":2632:2637  descr */\n      dup5\n        /* \"DAO/VotingDAO.sol\":2606:2617  newProposal */\n      dup2\n        /* \"DAO/VotingDAO.sol\":2606:2629  newProposal.description */\n      0x20\n      add\n        /* \"DAO/VotingDAO.sol\":2606:2637  newProposal.description = descr */\n      dup2\n      swap1\n      mstore\n      pop\n        /* \"DAO/VotingDAO.sol\":2668:2674  budget */\n      dup4\n        /* \"DAO/VotingDAO.sol\":2647:2658  newProposal */\n      dup2\n        /* \"DAO/VotingDAO.sol\":2647:2665  newProposal.budget */\n      0x40\n      add\n        /* \"DAO/VotingDAO.sol\":2647:2674  newProposal.budget = budget */\n      dup2\n      dup2\n      mstore\n      pop\n      pop\n        /* \"DAO/VotingDAO.sol\":2709:2713  exec */\n      dup3\n        /* \"DAO/VotingDAO.sol\":2684:2695  newProposal */\n      dup2\n        /* \"DAO/VotingDAO.sol\":2684:2706  newProposal.executable */\n      0x60\n      add\n        /* \"DAO/VotingDAO.sol\":2684:2713  newProposal.executable = exec */\n      swap1\n      0xffffffffffffffffffffffffffffffffffffffff\n      and\n      swap1\n      dup2\n      0xffffffffffffffffffffffffffffffffffffffff\n      and\n      dup2\n      mstore\n      pop\n      pop\n        /* \"DAO/VotingDAO.sol\":2748:2759  newProposal */\n      dup1\n        /* \"DAO/VotingDAO.sol\":2724:2733  proposals */\n      0x01\n        /* \"DAO/VotingDAO.sol\":2724:2745  proposals[msg.sender] */\n      0x00\n        /* \"DAO/VotingDAO.sol\":2734:2744  msg.sender */\n      caller\n        /* \"DAO/VotingDAO.sol\":2724:2745  proposals[msg.sender] */\n      0xffffffffffffffffffffffffffffffffffffffff\n      and\n      0xffffffffffffffffffffffffffffffffffffffff\n      and\n      dup2\n      mstore\n      0x20\n      add\n      swap1\n      dup2\n      mstore\n      0x20\n      add\n      0x00\n      keccak256\n        /* \"DAO/VotingDAO.sol\":2724:2759  proposals[msg.sender] = newProposal */\n      0x00\n      dup3\n      add\n      mload\n      dup2\n      0x00\n      add\n      sstore\n      0x20\n      dup3\n      add\n      mload\n      dup2\n      0x01\n      add\n      swap1\n      dup1\n      mload\n      swap1\n      0x20\n      add\n      swap1\n      tag_39\n      swap3\n      swap2\n      swap1\n      tag_40\n      jump\t// in\n    tag_39:\n      pop\n      0x40\n      dup3\n      add\n      mload\n      dup2\n      0x02\n      add\n      sstore\n      0x60\n      dup3\n      add\n      mload\n      dup2\n      0x03\n      add\n      exp(0x0100, 0x00)\n      dup2\n      sload\n      dup2\n      0xffffffffffffffffffffffffffffffffffffffff\n      mul\n      not\n      and\n      swap1\n      dup4\n      0xffffffffffffffffffffffffffffffffffffffff\n      and\n      mul\n      or\n      swap1\n      sstore\n      pop\n      swap1\n      pop\n      pop\n        /* \"DAO/VotingDAO.sol\":2775:2827  NuevaPropuesta (proposalCounter, msg.sender, budget) */\n      0x5622a33cfde197628279b713ab8b88e499361a9187b6dd801add67cf586f9c23\n        /* \"DAO/VotingDAO.sol\":2791:2806  proposalCounter */\n      sload(0x00)\n        /* \"DAO/VotingDAO.sol\":2808:2818  msg.sender */\n      caller\n        /* \"DAO/VotingDAO.sol\":2820:2826  budget */\n      dup7\n        /* \"DAO/VotingDAO.sol\":2775:2827  NuevaPropuesta (proposalCounter, msg.sender, budget) */\n      mload(0x40)\n      tag_41\n      swap4\n      swap3\n      swap2\n      swap1\n      tag_42\n      jump\t// in\n    tag_41:\n      mload(0x40)\n      dup1\n      swap2\n      sub\n      swap1\n      log1\n        /* \"DAO/VotingDAO.sol\":2845:2860  proposalCounter */\n      sload(0x00)\n        /* \"DAO/VotingDAO.sol\":2838:2860  return proposalCounter */\n      swap2\n      pop\n      pop\n        /* \"DAO/VotingDAO.sol\":2341:2867  function aniadirPropuesta(string memory descr, uint budget, IExecutableProposal exec) isParticipant votingIsStarted external override returns (uint) {... */\n      swap4\n      swap3\n      pop\n      pop\n      pop\n      jump\t// out\n        /* \"DAO/VotingDAO.sol\":2213:2335  function aniadirParticipante() isNotParticipant noAdmin external override {... */\n    tag_16:\n        /* \"DAO/VotingDAO.sol\":1162:1167  false */\n      0x00\n        /* \"DAO/VotingDAO.sol\":1134:1167  participants[msg.sender] == false */\n      iszero\n      iszero\n        /* \"DAO/VotingDAO.sol\":1134:1146  participants */\n      0x06\n        /* \"DAO/VotingDAO.sol\":1134:1158  participants[msg.sender] */\n      0x00\n        /* \"DAO/VotingDAO.sol\":1147:1157  msg.sender */\n      caller\n        /* \"DAO/VotingDAO.sol\":1134:1158  participants[msg.sender] */\n      0xffffffffffffffffffffffffffffffffffffffff\n      and\n      0xffffffffffffffffffffffffffffffffffffffff\n      and\n      dup2\n      mstore\n      0x20\n      add\n      swap1\n      dup2\n      mstore\n      0x20\n      add\n      0x00\n      keccak256\n      0x00\n      swap1\n      sload\n      swap1\n      0x0100\n      exp\n      swap1\n      div\n      0xff\n      and\n        /* \"DAO/VotingDAO.sol\":1134:1167  participants[msg.sender] == false */\n      iszero\n      iszero\n      eq\n        /* \"DAO/VotingDAO.sol\":1125:1168  require (participants[msg.sender] == false) */\n      tag_44\n      jumpi\n      0x00\n      dup1\n      revert\n    tag_44:\n        /* \"DAO/VotingDAO.sol\":668:681  administrator */\n      0x02\n      0x00\n      swap1\n      sload\n      swap1\n      0x0100\n      exp\n      swap1\n      div\n      0xffffffffffffffffffffffffffffffffffffffff\n      and\n        /* \"DAO/VotingDAO.sol\":654:681  msg.sender != administrator */\n      0xffffffffffffffffffffffffffffffffffffffff\n      and\n        /* \"DAO/VotingDAO.sol\":654:664  msg.sender */\n      caller\n        /* \"DAO/VotingDAO.sol\":654:681  msg.sender != administrator */\n      0xffffffffffffffffffffffffffffffffffffffff\n      and\n      eq\n      iszero\n        /* \"DAO/VotingDAO.sol\":646:682  require(msg.sender != administrator) */\n      tag_46\n      jumpi\n      0x00\n      dup1\n      revert\n    tag_46:\n        /* \"DAO/VotingDAO.sol\":2324:2328  true */\n      0x01\n        /* \"DAO/VotingDAO.sol\":2297:2309  participants */\n      0x06\n        /* \"DAO/VotingDAO.sol\":2297:2321  participants[msg.sender] */\n      0x00\n        /* \"DAO/VotingDAO.sol\":2310:2320  msg.sender */\n      caller\n        /* \"DAO/VotingDAO.sol\":2297:2321  participants[msg.sender] */\n      0xffffffffffffffffffffffffffffffffffffffff\n      and\n      0xffffffffffffffffffffffffffffffffffffffff\n      and\n      dup2\n      mstore\n      0x20\n      add\n      swap1\n      dup2\n      mstore\n      0x20\n      add\n      0x00\n      keccak256\n      0x00\n        /* \"DAO/VotingDAO.sol\":2297:2328  participants[msg.sender] = true */\n      0x0100\n      exp\n      dup2\n      sload\n      dup2\n      0xff\n      mul\n      not\n      and\n      swap1\n      dup4\n      iszero\n      iszero\n      mul\n      or\n      swap1\n      sstore\n      pop\n        /* \"DAO/VotingDAO.sol\":2213:2335  function aniadirParticipante() isNotParticipant noAdmin external override {... */\n      jump\t// out\n        /* \"DAO/VotingDAO.sol\":1734:2046  function iniciarVotacion(uint startDate, uint endDate) onlyAdmin votingIsNotStarted external override {... */\n    tag_20:\n        /* \"DAO/VotingDAO.sol\":581:594  administrator */\n      0x02\n      0x00\n      swap1\n      sload\n      swap1\n      0x0100\n      exp\n      swap1\n      div\n      0xffffffffffffffffffffffffffffffffffffffff\n      and\n        /* \"DAO/VotingDAO.sol\":567:594  msg.sender == administrator */\n      0xffffffffffffffffffffffffffffffffffffffff\n      and\n        /* \"DAO/VotingDAO.sol\":567:577  msg.sender */\n      caller\n        /* \"DAO/VotingDAO.sol\":567:594  msg.sender == administrator */\n      0xffffffffffffffffffffffffffffffffffffffff\n      and\n      eq\n        /* \"DAO/VotingDAO.sol\":559:595  require(msg.sender == administrator) */\n      tag_49\n      jumpi\n      0x00\n      dup1\n      revert\n    tag_49:\n        /* \"DAO/VotingDAO.sol\":770:775  false */\n      0x00\n        /* \"DAO/VotingDAO.sol\":753:775  votingStarted == false */\n      iszero\n      iszero\n        /* \"DAO/VotingDAO.sol\":753:766  votingStarted */\n      0x05\n      0x00\n      swap1\n      sload\n      swap1\n      0x0100\n      exp\n      swap1\n      div\n      0xff\n      and\n        /* \"DAO/VotingDAO.sol\":753:775  votingStarted == false */\n      iszero\n      iszero\n      eq\n        /* \"DAO/VotingDAO.sol\":744:776  require (votingStarted == false) */\n      tag_51\n      jumpi\n      0x00\n      dup1\n      revert\n    tag_51:\n        /* \"DAO/VotingDAO.sol\":1903:1938  InicioVotacion (startDate, endDate) */\n      0x03270b5691af526f8182c9b4d6c779a3008eddceee1c00ca86bd9e31b4554709\n        /* \"DAO/VotingDAO.sol\":1919:1928  startDate */\n      dup3\n        /* \"DAO/VotingDAO.sol\":1930:1937  endDate */\n      dup3\n        /* \"DAO/VotingDAO.sol\":1903:1938  InicioVotacion (startDate, endDate) */\n      mload(0x40)\n      tag_53\n      swap3\n      swap2\n      swap1\n      tag_54\n      jump\t// in\n    tag_53:\n      mload(0x40)\n      dup1\n      swap2\n      sub\n      swap1\n      log1\n        /* \"DAO/VotingDAO.sol\":1967:1976  startDate */\n      dup2\n        /* \"DAO/VotingDAO.sol\":1949:1964  startDateVoting */\n      0x03\n        /* \"DAO/VotingDAO.sol\":1949:1976  startDateVoting = startDate */\n      dup2\n      swap1\n      sstore\n      pop\n        /* \"DAO/VotingDAO.sol\":2002:2009  endDate */\n      dup1\n        /* \"DAO/VotingDAO.sol\":1986:1999  endDateVoting */\n      0x04\n        /* \"DAO/VotingDAO.sol\":1986:2009  endDateVoting = endDate */\n      dup2\n      swap1\n      sstore\n      pop\n        /* \"DAO/VotingDAO.sol\":2035:2039  true */\n      0x01\n        /* \"DAO/VotingDAO.sol\":2019:2032  votingStarted */\n      0x05\n      0x00\n        /* \"DAO/VotingDAO.sol\":2019:2039  votingStarted = true */\n      0x0100\n      exp\n      dup2\n      sload\n      dup2\n      0xff\n      mul\n      not\n      and\n      swap1\n      dup4\n      iszero\n      iszero\n      mul\n      or\n      swap1\n      sstore\n      pop\n        /* \"DAO/VotingDAO.sol\":1734:2046  function iniciarVotacion(uint startDate, uint endDate) onlyAdmin votingIsNotStarted external override {... */\n      pop\n      pop\n      jump\t// out\n        /* \"DAO/VotingDAO.sol\":2877:2982  function retirarPropuesta(uint propId) external override {... */\n    tag_24:\n        /* \"DAO/VotingDAO.sol\":2949:2975  PropuestaRetirada (propId) */\n      0xd8e808805f95552d6de13372d6c625e6d1ac526f69de97048077c6c2eed41e74\n        /* \"DAO/VotingDAO.sol\":2968:2974  propId */\n      dup2\n        /* \"DAO/VotingDAO.sol\":2949:2975  PropuestaRetirada (propId) */\n      mload(0x40)\n      tag_56\n      swap2\n      swap1\n      tag_14\n      jump\t// in\n    tag_56:\n      mload(0x40)\n      dup1\n      swap2\n      sub\n      swap1\n      log1\n        /* \"DAO/VotingDAO.sol\":2877:2982  function retirarPropuesta(uint propId) external override {... */\n      pop\n      jump\t// out\n        /* \"DAO/VotingDAO.sol\":2992:3111  function votar(uint propId, uint numVotes) votingIsStarted external override {... */\n    tag_27:\n        /* \"DAO/VotingDAO.sol\":861:865  true */\n      0x01\n        /* \"DAO/VotingDAO.sol\":844:865  votingStarted == true */\n      iszero\n      iszero\n        /* \"DAO/VotingDAO.sol\":844:857  votingStarted */\n      0x05\n      0x00\n      swap1\n      sload\n      swap1\n      0x0100\n      exp\n      swap1\n      div\n      0xff\n      and\n        /* \"DAO/VotingDAO.sol\":844:865  votingStarted == true */\n      iszero\n      iszero\n      eq\n        /* \"DAO/VotingDAO.sol\":835:866  require (votingStarted == true) */\n      tag_58\n      jumpi\n      0x00\n      dup1\n      revert\n    tag_58:\n        /* \"DAO/VotingDAO.sol\":2992:3111  function votar(uint propId, uint numVotes) votingIsStarted external override {... */\n      pop\n      pop\n      jump\t// out\n        /* \"DAO/VotingDAO.sol\":2052:2207  function finalizarVotacion() onlyAdmin votingIsStarted votingIsExpired external override {... */\n    tag_29:\n        /* \"DAO/VotingDAO.sol\":581:594  administrator */\n      0x02\n      0x00\n      swap1\n      sload\n      swap1\n      0x0100\n      exp\n      swap1\n      div\n      0xffffffffffffffffffffffffffffffffffffffff\n      and\n        /* \"DAO/VotingDAO.sol\":567:594  msg.sender == administrator */\n      0xffffffffffffffffffffffffffffffffffffffff\n      and\n        /* \"DAO/VotingDAO.sol\":567:577  msg.sender */\n      caller\n        /* \"DAO/VotingDAO.sol\":567:594  msg.sender == administrator */\n      0xffffffffffffffffffffffffffffffffffffffff\n      and\n      eq\n        /* \"DAO/VotingDAO.sol\":559:595  require(msg.sender == administrator) */\n      tag_61\n      jumpi\n      0x00\n      dup1\n      revert\n    tag_61:\n        /* \"DAO/VotingDAO.sol\":861:865  true */\n      0x01\n        /* \"DAO/VotingDAO.sol\":844:865  votingStarted == true */\n      iszero\n      iszero\n        /* \"DAO/VotingDAO.sol\":844:857  votingStarted */\n      0x05\n      0x00\n      swap1\n      sload\n      swap1\n      0x0100\n      exp\n      swap1\n      div\n      0xff\n      and\n        /* \"DAO/VotingDAO.sol\":844:865  votingStarted == true */\n      iszero\n      iszero\n      eq\n        /* \"DAO/VotingDAO.sol\":835:866  require (votingStarted == true) */\n      tag_63\n      jumpi\n      0x00\n      dup1\n      revert\n    tag_63:\n        /* \"DAO/VotingDAO.sol\":952:965  endDateVoting */\n      sload(0x04)\n        /* \"DAO/VotingDAO.sol\":934:949  block.timestamp */\n      timestamp\n        /* \"DAO/VotingDAO.sol\":934:965  block.timestamp > endDateVoting */\n      gt\n        /* \"DAO/VotingDAO.sol\":925:966  require (block.timestamp > endDateVoting) */\n      tag_65\n      jumpi\n      0x00\n      dup1\n      revert\n    tag_65:\n        /* \"DAO/VotingDAO.sol\":2156:2169  FinVotacion() */\n      0x5703c2dbb5386f40b06ee9f3400d3cf4c935bc803c3f56d4b20c4aca936199e7\n      mload(0x40)\n      mload(0x40)\n      dup1\n      swap2\n      sub\n      swap1\n      log1\n        /* \"DAO/VotingDAO.sol\":2195:2200  false */\n      0x00\n        /* \"DAO/VotingDAO.sol\":2179:2192  votingStarted */\n      0x05\n      0x00\n        /* \"DAO/VotingDAO.sol\":2179:2200  votingStarted = false */\n      0x0100\n      exp\n      dup2\n      sload\n      dup2\n      0xff\n      mul\n      not\n      and\n      swap1\n      dup4\n      iszero\n      iszero\n      mul\n      or\n      swap1\n      sstore\n      pop\n        /* \"DAO/VotingDAO.sol\":2052:2207  function finalizarVotacion() onlyAdmin votingIsStarted votingIsExpired external override {... */\n      jump\t// out\n    tag_38:\n      mload(0x40)\n      dup1\n      0x80\n      add\n      0x40\n      mstore\n      dup1\n      0x00\n      dup2\n      mstore\n      0x20\n      add\n      0x60\n      dup2\n      mstore\n      0x20\n      add\n      0x00\n      dup2\n      mstore\n      0x20\n      add\n      and(0xffffffffffffffffffffffffffffffffffffffff, 0x00)\n      dup2\n      mstore\n      pop\n      swap1\n      jump\t// out\n    tag_40:\n      dup3\n      dup1\n      sload\n      tag_67\n      swap1\n      tag_68\n      jump\t// in\n    tag_67:\n      swap1\n      0x00\n      mstore\n      keccak256(0x00, 0x20)\n      swap1\n      0x1f\n      add\n      0x20\n      swap1\n      div\n      dup2\n      add\n      swap3\n      dup3\n      tag_70\n      jumpi\n      0x00\n      dup6\n      sstore\n      jump(tag_69)\n    tag_70:\n      dup3\n      0x1f\n      lt\n      tag_71\n      jumpi\n      dup1\n      mload\n      not(0xff)\n      and\n      dup4\n      dup1\n      add\n      or\n      dup6\n      sstore\n      jump(tag_69)\n    tag_71:\n      dup3\n      dup1\n      add\n      0x01\n      add\n      dup6\n      sstore\n      dup3\n      iszero\n      tag_69\n      jumpi\n      swap2\n      dup3\n      add\n    tag_72:\n      dup3\n      dup2\n      gt\n      iszero\n      tag_73\n      jumpi\n      dup3\n      mload\n      dup3\n      sstore\n      swap2\n      0x20\n      add\n      swap2\n      swap1\n      0x01\n      add\n      swap1\n      jump(tag_72)\n    tag_73:\n    tag_69:\n      pop\n      swap1\n      pop\n      tag_74\n      swap2\n      swap1\n      tag_75\n      jump\t// in\n    tag_74:\n      pop\n      swap1\n      jump\t// out\n    tag_75:\n    tag_76:\n      dup1\n      dup3\n      gt\n      iszero\n      tag_77\n      jumpi\n      0x00\n      dup2\n      0x00\n      swap1\n      sstore\n      pop\n      0x01\n      add\n      jump(tag_76)\n    tag_77:\n      pop\n      swap1\n      jump\t// out\n        /* \"#utility.yul\":7:351   */\n    tag_79:\n      0x00\n        /* \"#utility.yul\":110:175   */\n      tag_81\n        /* \"#utility.yul\":125:174   */\n      tag_82\n        /* \"#utility.yul\":167:173   */\n      dup5\n        /* \"#utility.yul\":125:174   */\n      tag_83\n      jump\t// in\n    tag_82:\n        /* \"#utility.yul\":110:175   */\n      tag_84\n      jump\t// in\n    tag_81:\n        /* \"#utility.yul\":101:175   */\n      swap1\n      pop\n        /* \"#utility.yul\":198:204   */\n      dup3\n        /* \"#utility.yul\":191:196   */\n      dup2\n        /* \"#utility.yul\":184:205   */\n      mstore\n        /* \"#utility.yul\":236:240   */\n      0x20\n        /* \"#utility.yul\":229:234   */\n      dup2\n        /* \"#utility.yul\":225:241   */\n      add\n        /* \"#utility.yul\":274:277   */\n      dup5\n        /* \"#utility.yul\":265:271   */\n      dup5\n        /* \"#utility.yul\":260:263   */\n      dup5\n        /* \"#utility.yul\":256:272   */\n      add\n        /* \"#utility.yul\":253:278   */\n      gt\n        /* \"#utility.yul\":250:252   */\n      iszero\n      tag_85\n      jumpi\n        /* \"#utility.yul\":291:292   */\n      0x00\n        /* \"#utility.yul\":288:289   */\n      dup1\n        /* \"#utility.yul\":281:293   */\n      revert\n        /* \"#utility.yul\":250:252   */\n    tag_85:\n        /* \"#utility.yul\":304:345   */\n      tag_86\n        /* \"#utility.yul\":338:344   */\n      dup5\n        /* \"#utility.yul\":333:336   */\n      dup3\n        /* \"#utility.yul\":328:331   */\n      dup6\n        /* \"#utility.yul\":304:345   */\n      tag_87\n      jump\t// in\n    tag_86:\n        /* \"#utility.yul\":91:351   */\n      pop\n      swap4\n      swap3\n      pop\n      pop\n      pop\n      jump\t// out\n        /* \"#utility.yul\":357:548   */\n    tag_88:\n      0x00\n        /* \"#utility.yul\":467:473   */\n      dup2\n        /* \"#utility.yul\":454:474   */\n      calldataload\n        /* \"#utility.yul\":445:474   */\n      swap1\n      pop\n        /* \"#utility.yul\":483:542   */\n      tag_90\n        /* \"#utility.yul\":536:541   */\n      dup2\n        /* \"#utility.yul\":483:542   */\n      tag_91\n      jump\t// in\n    tag_90:\n        /* \"#utility.yul\":435:548   */\n      swap3\n      swap2\n      pop\n      pop\n      jump\t// out\n        /* \"#utility.yul\":568:841   */\n    tag_92:\n      0x00\n        /* \"#utility.yul\":673:676   */\n      dup3\n        /* \"#utility.yul\":666:670   */\n      0x1f\n        /* \"#utility.yul\":658:664   */\n      dup4\n        /* \"#utility.yul\":654:671   */\n      add\n        /* \"#utility.yul\":650:677   */\n      slt\n        /* \"#utility.yul\":640:642   */\n      tag_94\n      jumpi\n        /* \"#utility.yul\":691:692   */\n      0x00\n        /* \"#utility.yul\":688:689   */\n      dup1\n        /* \"#utility.yul\":681:693   */\n      revert\n        /* \"#utility.yul\":640:642   */\n    tag_94:\n        /* \"#utility.yul\":731:737   */\n      dup2\n        /* \"#utility.yul\":718:738   */\n      calldataload\n        /* \"#utility.yul\":756:835   */\n      tag_95\n        /* \"#utility.yul\":831:834   */\n      dup5\n        /* \"#utility.yul\":823:829   */\n      dup3\n        /* \"#utility.yul\":816:820   */\n      0x20\n        /* \"#utility.yul\":808:814   */\n      dup7\n        /* \"#utility.yul\":804:821   */\n      add\n        /* \"#utility.yul\":756:835   */\n      tag_79\n      jump\t// in\n    tag_95:\n        /* \"#utility.yul\":747:835   */\n      swap2\n      pop\n        /* \"#utility.yul\":630:841   */\n      pop\n      swap3\n      swap2\n      pop\n      pop\n      jump\t// out\n        /* \"#utility.yul\":847:986   */\n    tag_96:\n      0x00\n        /* \"#utility.yul\":931:937   */\n      dup2\n        /* \"#utility.yul\":918:938   */\n      calldataload\n        /* \"#utility.yul\":909:938   */\n      swap1\n      pop\n        /* \"#utility.yul\":947:980   */\n      tag_98\n        /* \"#utility.yul\":974:979   */\n      dup2\n        /* \"#utility.yul\":947:980   */\n      tag_99\n      jump\t// in\n    tag_98:\n        /* \"#utility.yul\":899:986   */\n      swap3\n      swap2\n      pop\n      pop\n      jump\t// out\n        /* \"#utility.yul\":992:1709   */\n    tag_11:\n      0x00\n      dup1\n      0x00\n        /* \"#utility.yul\":1170:1172   */\n      0x60\n        /* \"#utility.yul\":1158:1167   */\n      dup5\n        /* \"#utility.yul\":1149:1156   */\n      dup7\n        /* \"#utility.yul\":1145:1168   */\n      sub\n        /* \"#utility.yul\":1141:1173   */\n      slt\n        /* \"#utility.yul\":1138:1140   */\n      iszero\n      tag_101\n      jumpi\n        /* \"#utility.yul\":1186:1187   */\n      0x00\n        /* \"#utility.yul\":1183:1184   */\n      dup1\n        /* \"#utility.yul\":1176:1188   */\n      revert\n        /* \"#utility.yul\":1138:1140   */\n    tag_101:\n        /* \"#utility.yul\":1257:1258   */\n      0x00\n        /* \"#utility.yul\":1246:1255   */\n      dup5\n        /* \"#utility.yul\":1242:1259   */\n      add\n        /* \"#utility.yul\":1229:1260   */\n      calldataload\n        /* \"#utility.yul\":1287:1305   */\n      0xffffffffffffffff\n        /* \"#utility.yul\":1279:1285   */\n      dup2\n        /* \"#utility.yul\":1276:1306   */\n      gt\n        /* \"#utility.yul\":1273:1275   */\n      iszero\n      tag_102\n      jumpi\n        /* \"#utility.yul\":1319:1320   */\n      0x00\n        /* \"#utility.yul\":1316:1317   */\n      dup1\n        /* \"#utility.yul\":1309:1321   */\n      revert\n        /* \"#utility.yul\":1273:1275   */\n    tag_102:\n        /* \"#utility.yul\":1347:1410   */\n      tag_103\n        /* \"#utility.yul\":1402:1409   */\n      dup7\n        /* \"#utility.yul\":1393:1399   */\n      dup3\n        /* \"#utility.yul\":1382:1391   */\n      dup8\n        /* \"#utility.yul\":1378:1400   */\n      add\n        /* \"#utility.yul\":1347:1410   */\n      tag_92\n      jump\t// in\n    tag_103:\n        /* \"#utility.yul\":1337:1410   */\n      swap4\n      pop\n        /* \"#utility.yul\":1200:1420   */\n      pop\n        /* \"#utility.yul\":1459:1461   */\n      0x20\n        /* \"#utility.yul\":1485:1538   */\n      tag_104\n        /* \"#utility.yul\":1530:1537   */\n      dup7\n        /* \"#utility.yul\":1521:1527   */\n      dup3\n        /* \"#utility.yul\":1510:1519   */\n      dup8\n        /* \"#utility.yul\":1506:1528   */\n      add\n        /* \"#utility.yul\":1485:1538   */\n      tag_96\n      jump\t// in\n    tag_104:\n        /* \"#utility.yul\":1475:1538   */\n      swap3\n      pop\n        /* \"#utility.yul\":1430:1548   */\n      pop\n        /* \"#utility.yul\":1587:1589   */\n      0x40\n        /* \"#utility.yul\":1613:1692   */\n      tag_105\n        /* \"#utility.yul\":1684:1691   */\n      dup7\n        /* \"#utility.yul\":1675:1681   */\n      dup3\n        /* \"#utility.yul\":1664:1673   */\n      dup8\n        /* \"#utility.yul\":1660:1682   */\n      add\n        /* \"#utility.yul\":1613:1692   */\n      tag_88\n      jump\t// in\n    tag_105:\n        /* \"#utility.yul\":1603:1692   */\n      swap2\n      pop\n        /* \"#utility.yul\":1558:1702   */\n      pop\n        /* \"#utility.yul\":1128:1709   */\n      swap3\n      pop\n      swap3\n      pop\n      swap3\n      jump\t// out\n        /* \"#utility.yul\":1715:1977   */\n    tag_23:\n      0x00\n        /* \"#utility.yul\":1823:1825   */\n      0x20\n        /* \"#utility.yul\":1811:1820   */\n      dup3\n        /* \"#utility.yul\":1802:1809   */\n      dup5\n        /* \"#utility.yul\":1798:1821   */\n      sub\n        /* \"#utility.yul\":1794:1826   */\n      slt\n        /* \"#utility.yul\":1791:1793   */\n      iszero\n      tag_107\n      jumpi\n        /* \"#utility.yul\":1839:1840   */\n      0x00\n        /* \"#utility.yul\":1836:1837   */\n      dup1\n        /* \"#utility.yul\":1829:1841   */\n      revert\n        /* \"#utility.yul\":1791:1793   */\n    tag_107:\n        /* \"#utility.yul\":1882:1883   */\n      0x00\n        /* \"#utility.yul\":1907:1960   */\n      tag_108\n        /* \"#utility.yul\":1952:1959   */\n      dup5\n        /* \"#utility.yul\":1943:1949   */\n      dup3\n        /* \"#utility.yul\":1932:1941   */\n      dup6\n        /* \"#utility.yul\":1928:1950   */\n      add\n        /* \"#utility.yul\":1907:1960   */\n      tag_96\n      jump\t// in\n    tag_108:\n        /* \"#utility.yul\":1897:1960   */\n      swap2\n      pop\n        /* \"#utility.yul\":1853:1970   */\n      pop\n        /* \"#utility.yul\":1781:1977   */\n      swap3\n      swap2\n      pop\n      pop\n      jump\t// out\n        /* \"#utility.yul\":1983:2390   */\n    tag_19:\n      0x00\n      dup1\n        /* \"#utility.yul\":2108:2110   */\n      0x40\n        /* \"#utility.yul\":2096:2105   */\n      dup4\n        /* \"#utility.yul\":2087:2094   */\n      dup6\n        /* \"#utility.yul\":2083:2106   */\n      sub\n        /* \"#utility.yul\":2079:2111   */\n      slt\n        /* \"#utility.yul\":2076:2078   */\n      iszero\n      tag_110\n      jumpi\n        /* \"#utility.yul\":2124:2125   */\n      0x00\n        /* \"#utility.yul\":2121:2122   */\n      dup1\n        /* \"#utility.yul\":2114:2126   */\n      revert\n        /* \"#utility.yul\":2076:2078   */\n    tag_110:\n        /* \"#utility.yul\":2167:2168   */\n      0x00\n        /* \"#utility.yul\":2192:2245   */\n      tag_111\n        /* \"#utility.yul\":2237:2244   */\n      dup6\n        /* \"#utility.yul\":2228:2234   */\n      dup3\n        /* \"#utility.yul\":2217:2226   */\n      dup7\n        /* \"#utility.yul\":2213:2235   */\n      add\n        /* \"#utility.yul\":2192:2245   */\n      tag_96\n      jump\t// in\n    tag_111:\n        /* \"#utility.yul\":2182:2245   */\n      swap3\n      pop\n        /* \"#utility.yul\":2138:2255   */\n      pop\n        /* \"#utility.yul\":2294:2296   */\n      0x20\n        /* \"#utility.yul\":2320:2373   */\n      tag_112\n        /* \"#utility.yul\":2365:2372   */\n      dup6\n        /* \"#utility.yul\":2356:2362   */\n      dup3\n        /* \"#utility.yul\":2345:2354   */\n      dup7\n        /* \"#utility.yul\":2341:2363   */\n      add\n        /* \"#utility.yul\":2320:2373   */\n      tag_96\n      jump\t// in\n    tag_112:\n        /* \"#utility.yul\":2310:2373   */\n      swap2\n      pop\n        /* \"#utility.yul\":2265:2383   */\n      pop\n        /* \"#utility.yul\":2066:2390   */\n      swap3\n      pop\n      swap3\n      swap1\n      pop\n      jump\t// out\n        /* \"#utility.yul\":2396:2514   */\n    tag_113:\n        /* \"#utility.yul\":2483:2507   */\n      tag_115\n        /* \"#utility.yul\":2501:2506   */\n      dup2\n        /* \"#utility.yul\":2483:2507   */\n      tag_116\n      jump\t// in\n    tag_115:\n        /* \"#utility.yul\":2478:2481   */\n      dup3\n        /* \"#utility.yul\":2471:2508   */\n      mstore\n        /* \"#utility.yul\":2461:2514   */\n      pop\n      pop\n      jump\t// out\n        /* \"#utility.yul\":2520:2638   */\n    tag_117:\n        /* \"#utility.yul\":2607:2631   */\n      tag_119\n        /* \"#utility.yul\":2625:2630   */\n      dup2\n        /* \"#utility.yul\":2607:2631   */\n      tag_120\n      jump\t// in\n    tag_119:\n        /* \"#utility.yul\":2602:2605   */\n      dup3\n        /* \"#utility.yul\":2595:2632   */\n      mstore\n        /* \"#utility.yul\":2585:2638   */\n      pop\n      pop\n      jump\t// out\n        /* \"#utility.yul\":2644:2866   */\n    tag_14:\n      0x00\n        /* \"#utility.yul\":2775:2777   */\n      0x20\n        /* \"#utility.yul\":2764:2773   */\n      dup3\n        /* \"#utility.yul\":2760:2778   */\n      add\n        /* \"#utility.yul\":2752:2778   */\n      swap1\n      pop\n        /* \"#utility.yul\":2788:2859   */\n      tag_122\n        /* \"#utility.yul\":2856:2857   */\n      0x00\n        /* \"#utility.yul\":2845:2854   */\n      dup4\n        /* \"#utility.yul\":2841:2858   */\n      add\n        /* \"#utility.yul\":2832:2838   */\n      dup5\n        /* \"#utility.yul\":2788:2859   */\n      tag_117\n      jump\t// in\n    tag_122:\n        /* \"#utility.yul\":2742:2866   */\n      swap3\n      swap2\n      pop\n      pop\n      jump\t// out\n        /* \"#utility.yul\":2872:3314   */\n    tag_42:\n      0x00\n        /* \"#utility.yul\":3059:3061   */\n      0x60\n        /* \"#utility.yul\":3048:3057   */\n      dup3\n        /* \"#utility.yul\":3044:3062   */\n      add\n        /* \"#utility.yul\":3036:3062   */\n      swap1\n      pop\n        /* \"#utility.yul\":3072:3143   */\n      tag_124\n        /* \"#utility.yul\":3140:3141   */\n      0x00\n        /* \"#utility.yul\":3129:3138   */\n      dup4\n        /* \"#utility.yul\":3125:3142   */\n      add\n        /* \"#utility.yul\":3116:3122   */\n      dup7\n        /* \"#utility.yul\":3072:3143   */\n      tag_117\n      jump\t// in\n    tag_124:\n        /* \"#utility.yul\":3153:3225   */\n      tag_125\n        /* \"#utility.yul\":3221:3223   */\n      0x20\n        /* \"#utility.yul\":3210:3219   */\n      dup4\n        /* \"#utility.yul\":3206:3224   */\n      add\n        /* \"#utility.yul\":3197:3203   */\n      dup6\n        /* \"#utility.yul\":3153:3225   */\n      tag_113\n      jump\t// in\n    tag_125:\n        /* \"#utility.yul\":3235:3307   */\n      tag_126\n        /* \"#utility.yul\":3303:3305   */\n      0x40\n        /* \"#utility.yul\":3292:3301   */\n      dup4\n        /* \"#utility.yul\":3288:3306   */\n      add\n        /* \"#utility.yul\":3279:3285   */\n      dup5\n        /* \"#utility.yul\":3235:3307   */\n      tag_117\n      jump\t// in\n    tag_126:\n        /* \"#utility.yul\":3026:3314   */\n      swap5\n      swap4\n      pop\n      pop\n      pop\n      pop\n      jump\t// out\n        /* \"#utility.yul\":3320:3652   */\n    tag_54:\n      0x00\n        /* \"#utility.yul\":3479:3481   */\n      0x40\n        /* \"#utility.yul\":3468:3477   */\n      dup3\n        /* \"#utility.yul\":3464:3482   */\n      add\n        /* \"#utility.yul\":3456:3482   */\n      swap1\n      pop\n        /* \"#utility.yul\":3492:3563   */\n      tag_128\n        /* \"#utility.yul\":3560:3561   */\n      0x00\n        /* \"#utility.yul\":3549:3558   */\n      dup4\n        /* \"#utility.yul\":3545:3562   */\n      add\n        /* \"#utility.yul\":3536:3542   */\n      dup6\n        /* \"#utility.yul\":3492:3563   */\n      tag_117\n      jump\t// in\n    tag_128:\n        /* \"#utility.yul\":3573:3645   */\n      tag_129\n        /* \"#utility.yul\":3641:3643   */\n      0x20\n        /* \"#utility.yul\":3630:3639   */\n      dup4\n        /* \"#utility.yul\":3626:3644   */\n      add\n        /* \"#utility.yul\":3617:3623   */\n      dup5\n        /* \"#utility.yul\":3573:3645   */\n      tag_117\n      jump\t// in\n    tag_129:\n        /* \"#utility.yul\":3446:3652   */\n      swap4\n      swap3\n      pop\n      pop\n      pop\n      jump\t// out\n        /* \"#utility.yul\":3658:3941   */\n    tag_84:\n      0x00\n        /* \"#utility.yul\":3724:3726   */\n      0x40\n        /* \"#utility.yul\":3718:3727   */\n      mload\n        /* \"#utility.yul\":3708:3727   */\n      swap1\n      pop\n        /* \"#utility.yul\":3766:3770   */\n      dup2\n        /* \"#utility.yul\":3758:3764   */\n      dup2\n        /* \"#utility.yul\":3754:3771   */\n      add\n        /* \"#utility.yul\":3873:3879   */\n      dup2\n        /* \"#utility.yul\":3861:3871   */\n      dup2\n        /* \"#utility.yul\":3858:3880   */\n      lt\n        /* \"#utility.yul\":3837:3855   */\n      0xffffffffffffffff\n        /* \"#utility.yul\":3825:3835   */\n      dup3\n        /* \"#utility.yul\":3822:3856   */\n      gt\n        /* \"#utility.yul\":3819:3881   */\n      or\n        /* \"#utility.yul\":3816:3818   */\n      iszero\n      tag_131\n      jumpi\n        /* \"#utility.yul\":3884:3902   */\n      tag_132\n      tag_133\n      jump\t// in\n    tag_132:\n        /* \"#utility.yul\":3816:3818   */\n    tag_131:\n        /* \"#utility.yul\":3924:3934   */\n      dup1\n        /* \"#utility.yul\":3920:3922   */\n      0x40\n        /* \"#utility.yul\":3913:3935   */\n      mstore\n        /* \"#utility.yul\":3698:3941   */\n      pop\n      swap2\n      swap1\n      pop\n      jump\t// out\n        /* \"#utility.yul\":3947:4279   */\n    tag_83:\n      0x00\n        /* \"#utility.yul\":4099:4117   */\n      0xffffffffffffffff\n        /* \"#utility.yul\":4091:4097   */\n      dup3\n        /* \"#utility.yul\":4088:4118   */\n      gt\n        /* \"#utility.yul\":4085:4087   */\n      iszero\n      tag_135\n      jumpi\n        /* \"#utility.yul\":4121:4139   */\n      tag_136\n      tag_133\n      jump\t// in\n    tag_136:\n        /* \"#utility.yul\":4085:4087   */\n    tag_135:\n        /* \"#utility.yul\":4206:4210   */\n      0x1f\n        /* \"#utility.yul\":4202:4211   */\n      not\n        /* \"#utility.yul\":4195:4199   */\n      0x1f\n        /* \"#utility.yul\":4187:4193   */\n      dup4\n        /* \"#utility.yul\":4183:4200   */\n      add\n        /* \"#utility.yul\":4179:4212   */\n      and\n        /* \"#utility.yul\":4171:4212   */\n      swap1\n      pop\n        /* \"#utility.yul\":4267:4271   */\n      0x20\n        /* \"#utility.yul\":4261:4265   */\n      dup2\n        /* \"#utility.yul\":4257:4272   */\n      add\n        /* \"#utility.yul\":4249:4272   */\n      swap1\n      pop\n        /* \"#utility.yul\":4014:4279   */\n      swap2\n      swap1\n      pop\n      jump\t// out\n        /* \"#utility.yul\":4285:4381   */\n    tag_116:\n      0x00\n        /* \"#utility.yul\":4351:4375   */\n      tag_138\n        /* \"#utility.yul\":4369:4374   */\n      dup3\n        /* \"#utility.yul\":4351:4375   */\n      tag_139\n      jump\t// in\n    tag_138:\n        /* \"#utility.yul\":4340:4375   */\n      swap1\n      pop\n        /* \"#utility.yul\":4330:4381   */\n      swap2\n      swap1\n      pop\n      jump\t// out\n        /* \"#utility.yul\":4387:4509   */\n    tag_140:\n      0x00\n        /* \"#utility.yul\":4479:4503   */\n      tag_142\n        /* \"#utility.yul\":4497:4502   */\n      dup3\n        /* \"#utility.yul\":4479:4503   */\n      tag_116\n      jump\t// in\n    tag_142:\n        /* \"#utility.yul\":4468:4503   */\n      swap1\n      pop\n        /* \"#utility.yul\":4458:4509   */\n      swap2\n      swap1\n      pop\n      jump\t// out\n        /* \"#utility.yul\":4515:4641   */\n    tag_139:\n      0x00\n        /* \"#utility.yul\":4592:4634   */\n      0xffffffffffffffffffffffffffffffffffffffff\n        /* \"#utility.yul\":4585:4590   */\n      dup3\n        /* \"#utility.yul\":4581:4635   */\n      and\n        /* \"#utility.yul\":4570:4635   */\n      swap1\n      pop\n        /* \"#utility.yul\":4560:4641   */\n      swap2\n      swap1\n      pop\n      jump\t// out\n        /* \"#utility.yul\":4647:4724   */\n    tag_120:\n      0x00\n        /* \"#utility.yul\":4713:4718   */\n      dup2\n        /* \"#utility.yul\":4702:4718   */\n      swap1\n      pop\n        /* \"#utility.yul\":4692:4724   */\n      swap2\n      swap1\n      pop\n      jump\t// out\n        /* \"#utility.yul\":4730:4884   */\n    tag_87:\n        /* \"#utility.yul\":4814:4820   */\n      dup3\n        /* \"#utility.yul\":4809:4812   */\n      dup2\n        /* \"#utility.yul\":4804:4807   */\n      dup4\n        /* \"#utility.yul\":4791:4821   */\n      calldatacopy\n        /* \"#utility.yul\":4876:4877   */\n      0x00\n        /* \"#utility.yul\":4867:4873   */\n      dup4\n        /* \"#utility.yul\":4862:4865   */\n      dup4\n        /* \"#utility.yul\":4858:4874   */\n      add\n        /* \"#utility.yul\":4851:4878   */\n      mstore\n        /* \"#utility.yul\":4781:4884   */\n      pop\n      pop\n      pop\n      jump\t// out\n        /* \"#utility.yul\":4890:5210   */\n    tag_68:\n      0x00\n        /* \"#utility.yul\":4971:4972   */\n      0x02\n        /* \"#utility.yul\":4965:4969   */\n      dup3\n        /* \"#utility.yul\":4961:4973   */\n      div\n        /* \"#utility.yul\":4951:4973   */\n      swap1\n      pop\n        /* \"#utility.yul\":5018:5019   */\n      0x01\n        /* \"#utility.yul\":5012:5016   */\n      dup3\n        /* \"#utility.yul\":5008:5020   */\n      and\n        /* \"#utility.yul\":5039:5057   */\n      dup1\n        /* \"#utility.yul\":5029:5031   */\n      tag_147\n      jumpi\n        /* \"#utility.yul\":5095:5099   */\n      0x7f\n        /* \"#utility.yul\":5087:5093   */\n      dup3\n        /* \"#utility.yul\":5083:5100   */\n      and\n        /* \"#utility.yul\":5073:5100   */\n      swap2\n      pop\n        /* \"#utility.yul\":5029:5031   */\n    tag_147:\n        /* \"#utility.yul\":5157:5159   */\n      0x20\n        /* \"#utility.yul\":5149:5155   */\n      dup3\n        /* \"#utility.yul\":5146:5160   */\n      lt\n        /* \"#utility.yul\":5126:5144   */\n      dup2\n        /* \"#utility.yul\":5123:5161   */\n      eq\n        /* \"#utility.yul\":5120:5122   */\n      iszero\n      tag_148\n      jumpi\n        /* \"#utility.yul\":5176:5194   */\n      tag_149\n      tag_150\n      jump\t// in\n    tag_149:\n        /* \"#utility.yul\":5120:5122   */\n    tag_148:\n        /* \"#utility.yul\":4941:5210   */\n      pop\n      swap2\n      swap1\n      pop\n      jump\t// out\n        /* \"#utility.yul\":5216:5449   */\n    tag_36:\n      0x00\n        /* \"#utility.yul\":5278:5302   */\n      tag_152\n        /* \"#utility.yul\":5296:5301   */\n      dup3\n        /* \"#utility.yul\":5278:5302   */\n      tag_120\n      jump\t// in\n    tag_152:\n        /* \"#utility.yul\":5269:5302   */\n      swap2\n      pop\n        /* \"#utility.yul\":5324:5390   */\n      0xffffffffffffffffffffffffffffffffffffffffffffffffffffffffffffffff\n        /* \"#utility.yul\":5317:5322   */\n      dup3\n        /* \"#utility.yul\":5314:5391   */\n      eq\n        /* \"#utility.yul\":5311:5313   */\n      iszero\n      tag_153\n      jumpi\n        /* \"#utility.yul\":5394:5412   */\n      tag_154\n      tag_155\n      jump\t// in\n    tag_154:\n        /* \"#utility.yul\":5311:5313   */\n    tag_153:\n        /* \"#utility.yul\":5441:5442   */\n      0x01\n        /* \"#utility.yul\":5434:5439   */\n      dup3\n        /* \"#utility.yul\":5430:5443   */\n      add\n        /* \"#utility.yul\":5423:5443   */\n      swap1\n      pop\n        /* \"#utility.yul\":5259:5449   */\n      swap2\n      swap1\n      pop\n      jump\t// out\n        /* \"#utility.yul\":5455:5635   */\n    tag_155:\n        /* \"#utility.yul\":5503:5580   */\n      0x4e487b7100000000000000000000000000000000000000000000000000000000\n        /* \"#utility.yul\":5500:5501   */\n      0x00\n        /* \"#utility.yul\":5493:5581   */\n      mstore\n        /* \"#utility.yul\":5600:5604   */\n      0x11\n        /* \"#utility.yul\":5597:5598   */\n      0x04\n        /* \"#utility.yul\":5590:5605   */\n      mstore\n        /* \"#utility.yul\":5624:5628   */\n      0x24\n        /* \"#utility.yul\":5621:5622   */\n      0x00\n        /* \"#utility.yul\":5614:5629   */\n      revert\n        /* \"#utility.yul\":5641:5821   */\n    tag_150:\n        /* \"#utility.yul\":5689:5766   */\n      0x4e487b7100000000000000000000000000000000000000000000000000000000\n        /* \"#utility.yul\":5686:5687   */\n      0x00\n        /* \"#utility.yul\":5679:5767   */\n      mstore\n        /* \"#utility.yul\":5786:5790   */\n      0x22\n        /* \"#utility.yul\":5783:5784   */\n      0x04\n        /* \"#utility.yul\":5776:5791   */\n      mstore\n        /* \"#utility.yul\":5810:5814   */\n      0x24\n        /* \"#utility.yul\":5807:5808   */\n      0x00\n        /* \"#utility.yul\":5800:5815   */\n      revert\n        /* \"#utility.yul\":5827:6007   */\n    tag_133:\n        /* \"#utility.yul\":5875:5952   */\n      0x4e487b7100000000000000000000000000000000000000000000000000000000\n        /* \"#utility.yul\":5872:5873   */\n      0x00\n        /* \"#utility.yul\":5865:5953   */\n      mstore\n        /* \"#utility.yul\":5972:5976   */\n      0x41\n        /* \"#utility.yul\":5969:5970   */\n      0x04\n        /* \"#utility.yul\":5962:5977   */\n      mstore\n        /* \"#utility.yul\":5996:6000   */\n      0x24\n        /* \"#utility.yul\":5993:5994   */\n      0x00\n        /* \"#utility.yul\":5986:6001   */\n      revert\n        /* \"#utility.yul\":6013:6187   */\n    tag_91:\n        /* \"#utility.yul\":6112:6162   */\n      tag_160\n        /* \"#utility.yul\":6156:6161   */\n      dup2\n        /* \"#utility.yul\":6112:6162   */\n      tag_140\n      jump\t// in\n    tag_160:\n        /* \"#utility.yul\":6105:6110   */\n      dup2\n        /* \"#utility.yul\":6102:6163   */\n      eq\n        /* \"#utility.yul\":6092:6094   */\n      tag_161\n      jumpi\n        /* \"#utility.yul\":6177:6178   */\n      0x00\n        /* \"#utility.yul\":6174:6175   */\n      dup1\n        /* \"#utility.yul\":6167:6179   */\n      revert\n        /* \"#utility.yul\":6092:6094   */\n    tag_161:\n        /* \"#utility.yul\":6082:6187   */\n      pop\n      jump\t// out\n        /* \"#utility.yul\":6193:6315   */\n    tag_99:\n        /* \"#utility.yul\":6266:6290   */\n      tag_163\n        /* \"#utility.yul\":6284:6289   */\n      dup2\n        /* \"#utility.yul\":6266:6290   */\n      tag_120\n      jump\t// in\n    tag_163:\n        /* \"#utility.yul\":6259:6264   */\n      dup2\n        /* \"#utility.yul\":6256:6291   */\n      eq\n        /* \"#utility.yul\":6246:6248   */\n      tag_164\n      jumpi\n        /* \"#utility.yul\":6305:6306   */\n      0x00\n        /* \"#utility.yul\":6302:6303   */\n      dup1\n        /* \"#utility.yul\":6295:6307   */\n      revert\n        /* \"#utility.yul\":6246:6248   */\n    tag_164:\n        /* \"#utility.yul\":6236:6315   */\n      pop\n      jump\t// out\n\n    auxdata: 0xa2646970667358221220ce938666138257b09bb6fb5d3db401f91e2307d6fae14388ddbdbdde59ad12fd64736f6c63430008000033\n}\n",
				"bytecode": {
					"linkReferences": {},
					"object": "60806040526000805534801561001457600080fd5b5033600260006101000a81548173ffffffffffffffffffffffffffffffffffffffff021916908373ffffffffffffffffffffffffffffffffffffffff160217905550610b1c806100656000396000f3fe608060405234801561001057600080fd5b50600436106100625760003560e01c8063170f8d1f1461006757806317657a1c146100975780631c64b8a0146100a15780632295f243146100bd5780634fa5a16f146100d957806367095dd8146100f5575b600080fd5b610081600480360381019061007c919061078d565b6100ff565b60405161008e9190610877565b60405180910390f35b61009f6102f9565b005b6100bb60048036038101906100b6919061081d565b61040b565b005b6100d760048036038101906100d291906107f4565b6104eb565b005b6100f360048036038101906100ee919061081d565b610525565b005b6100fd610549565b005b600060011515600660003373ffffffffffffffffffffffffffffffffffffffff1673ffffffffffffffffffffffffffffffffffffffff16815260200190815260200160002060009054906101000a900460ff1615151461015e57600080fd5b60011515600560009054906101000a900460ff1615151461017e57600080fd5b600080815480929190610190906109e2565b919050555061019d61061a565b6000548160000181815250508481602001819052508381604001818152505082816060019073ffffffffffffffffffffffffffffffffffffffff16908173ffffffffffffffffffffffffffffffffffffffff168152505080600160003373ffffffffffffffffffffffffffffffffffffffff1673ffffffffffffffffffffffffffffffffffffffff16815260200190815260200160002060008201518160000155602082015181600101908051906020019061025a929190610658565b506040820151816002015560608201518160030160006101000a81548173ffffffffffffffffffffffffffffffffffffffff021916908373ffffffffffffffffffffffffffffffffffffffff1602179055509050507f5622a33cfde197628279b713ab8b88e499361a9187b6dd801add67cf586f9c2360005433866040516102e493929190610892565b60405180910390a16000549150509392505050565b60001515600660003373ffffffffffffffffffffffffffffffffffffffff1673ffffffffffffffffffffffffffffffffffffffff16815260200190815260200160002060009054906101000a900460ff1615151461035657600080fd5b600260009054906101000a900473ffffffffffffffffffffffffffffffffffffffff1673ffffffffffffffffffffffffffffffffffffffff163373ffffffffffffffffffffffffffffffffffffffff1614156103b157600080fd5b6001600660003373ffffffffffffffffffffffffffffffffffffffff1673ffffffffffffffffffffffffffffffffffffffff16815260200190815260200160002060006101000a81548160ff021916908315150217905550565b600260009054906101000a900473ffffffffffffffffffffffffffffffffffffffff1673ffffffffffffffffffffffffffffffffffffffff163373ffffffffffffffffffffffffffffffffffffffff161461046557600080fd5b60001515600560009054906101000a900460ff1615151461048557600080fd5b7f03270b5691af526f8182c9b4d6c779a3008eddceee1c00ca86bd9e31b455470982826040516104b69291906108c9565b60405180910390a181600381905550806004819055506001600560006101000a81548160ff0219169083151502179055505050565b7fd8e808805f95552d6de13372d6c625e6d1ac526f69de97048077c6c2eed41e748160405161051a9190610877565b60405180910390a150565b60011515600560009054906101000a900460ff1615151461054557600080fd5b5050565b600260009054906101000a900473ffffffffffffffffffffffffffffffffffffffff1673ffffffffffffffffffffffffffffffffffffffff163373ffffffffffffffffffffffffffffffffffffffff16146105a357600080fd5b60011515600560009054906101000a900460ff161515146105c357600080fd5b60045442116105d157600080fd5b7f5703c2dbb5386f40b06ee9f3400d3cf4c935bc803c3f56d4b20c4aca936199e760405160405180910390a16000600560006101000a81548160ff021916908315150217905550565b6040518060800160405280600081526020016060815260200160008152602001600073ffffffffffffffffffffffffffffffffffffffff1681525090565b828054610664906109b0565b90600052602060002090601f01602090048101928261068657600085556106cd565b82601f1061069f57805160ff19168380011785556106cd565b828001600101855582156106cd579182015b828111156106cc5782518255916020019190600101906106b1565b5b5090506106da91906106de565b5090565b5b808211156106f75760008160009055506001016106df565b5090565b600061070e61070984610923565b6108f2565b90508281526020810184848401111561072657600080fd5b6107318482856109a1565b509392505050565b60008135905061074881610ab8565b92915050565b600082601f83011261075f57600080fd5b813561076f8482602086016106fb565b91505092915050565b60008135905061078781610acf565b92915050565b6000806000606084860312156107a257600080fd5b600084013567ffffffffffffffff8111156107bc57600080fd5b6107c88682870161074e565b93505060206107d986828701610778565b92505060406107ea86828701610739565b9150509250925092565b60006020828403121561080657600080fd5b600061081484828501610778565b91505092915050565b6000806040838503121561083057600080fd5b600061083e85828601610778565b925050602061084f85828601610778565b9150509250929050565b61086281610953565b82525050565b61087181610997565b82525050565b600060208201905061088c6000830184610868565b92915050565b60006060820190506108a76000830186610868565b6108b46020830185610859565b6108c16040830184610868565b949350505050565b60006040820190506108de6000830185610868565b6108eb6020830184610868565b9392505050565b6000604051905081810181811067ffffffffffffffff8211171561091957610918610a89565b5b8060405250919050565b600067ffffffffffffffff82111561093e5761093d610a89565b5b601f19601f8301169050602081019050919050565b600061095e82610977565b9050919050565b600061097082610953565b9050919050565b600073ffffffffffffffffffffffffffffffffffffffff82169050919050565b6000819050919050565b82818337600083830152505050565b600060028204905060018216806109c857607f821691505b602082108114156109dc576109db610a5a565b5b50919050565b60006109ed82610997565b91507fffffffffffffffffffffffffffffffffffffffffffffffffffffffffffffffff821415610a2057610a1f610a2b565b5b600182019050919050565b7f4e487b7100000000000000000000000000000000000000000000000000000000600052601160045260246000fd5b7f4e487b7100000000000000000000000000000000000000000000000000000000600052602260045260246000fd5b7f4e487b7100000000000000000000000000000000000000000000000000000000600052604160045260246000fd5b610ac181610965565b8114610acc57600080fd5b50565b610ad881610997565b8114610ae357600080fd5b5056fea2646970667358221220ce938666138257b09bb6fb5d3db401f91e2307d6fae14388ddbdbdde59ad12fd64736f6c63430008000033",
					"opcodes": "PUSH1 0x80 PUSH1 0x40 MSTORE PUSH1 0x0 DUP1 SSTORE CALLVALUE DUP1 ISZERO PUSH2 0x14 JUMPI PUSH1 0x0 DUP1 REVERT JUMPDEST POP CALLER PUSH1 0x2 PUSH1 0x0 PUSH2 0x100 EXP DUP2 SLOAD DUP2 PUSH20 0xFFFFFFFFFFFFFFFFFFFFFFFFFFFFFFFFFFFFFFFF MUL NOT AND SWAP1 DUP4 PUSH20 0xFFFFFFFFFFFFFFFFFFFFFFFFFFFFFFFFFFFFFFFF AND MUL OR SWAP1 SSTORE POP PUSH2 0xB1C DUP1 PUSH2 0x65 PUSH1 0x0 CODECOPY PUSH1 0x0 RETURN INVALID PUSH1 0x80 PUSH1 0x40 MSTORE CALLVALUE DUP1 ISZERO PUSH2 0x10 JUMPI PUSH1 0x0 DUP1 REVERT JUMPDEST POP PUSH1 0x4 CALLDATASIZE LT PUSH2 0x62 JUMPI PUSH1 0x0 CALLDATALOAD PUSH1 0xE0 SHR DUP1 PUSH4 0x170F8D1F EQ PUSH2 0x67 JUMPI DUP1 PUSH4 0x17657A1C EQ PUSH2 0x97 JUMPI DUP1 PUSH4 0x1C64B8A0 EQ PUSH2 0xA1 JUMPI DUP1 PUSH4 0x2295F243 EQ PUSH2 0xBD JUMPI DUP1 PUSH4 0x4FA5A16F EQ PUSH2 0xD9 JUMPI DUP1 PUSH4 0x67095DD8 EQ PUSH2 0xF5 JUMPI JUMPDEST PUSH1 0x0 DUP1 REVERT JUMPDEST PUSH2 0x81 PUSH1 0x4 DUP1 CALLDATASIZE SUB DUP2 ADD SWAP1 PUSH2 0x7C SWAP2 SWAP1 PUSH2 0x78D JUMP JUMPDEST PUSH2 0xFF JUMP JUMPDEST PUSH1 0x40 MLOAD PUSH2 0x8E SWAP2 SWAP1 PUSH2 0x877 JUMP JUMPDEST PUSH1 0x40 MLOAD DUP1 SWAP2 SUB SWAP1 RETURN JUMPDEST PUSH2 0x9F PUSH2 0x2F9 JUMP JUMPDEST STOP JUMPDEST PUSH2 0xBB PUSH1 0x4 DUP1 CALLDATASIZE SUB DUP2 ADD SWAP1 PUSH2 0xB6 SWAP2 SWAP1 PUSH2 0x81D JUMP JUMPDEST PUSH2 0x40B JUMP JUMPDEST STOP JUMPDEST PUSH2 0xD7 PUSH1 0x4 DUP1 CALLDATASIZE SUB DUP2 ADD SWAP1 PUSH2 0xD2 SWAP2 SWAP1 PUSH2 0x7F4 JUMP JUMPDEST PUSH2 0x4EB JUMP JUMPDEST STOP JUMPDEST PUSH2 0xF3 PUSH1 0x4 DUP1 CALLDATASIZE SUB DUP2 ADD SWAP1 PUSH2 0xEE SWAP2 SWAP1 PUSH2 0x81D JUMP JUMPDEST PUSH2 0x525 JUMP JUMPDEST STOP JUMPDEST PUSH2 0xFD PUSH2 0x549 JUMP JUMPDEST STOP JUMPDEST PUSH1 0x0 PUSH1 0x1 ISZERO ISZERO PUSH1 0x6 PUSH1 0x0 CALLER PUSH20 0xFFFFFFFFFFFFFFFFFFFFFFFFFFFFFFFFFFFFFFFF AND PUSH20 0xFFFFFFFFFFFFFFFFFFFFFFFFFFFFFFFFFFFFFFFF AND DUP2 MSTORE PUSH1 0x20 ADD SWAP1 DUP2 MSTORE PUSH1 0x20 ADD PUSH1 0x0 KECCAK256 PUSH1 0x0 SWAP1 SLOAD SWAP1 PUSH2 0x100 EXP SWAP1 DIV PUSH1 0xFF AND ISZERO ISZERO EQ PUSH2 0x15E JUMPI PUSH1 0x0 DUP1 REVERT JUMPDEST PUSH1 0x1 ISZERO ISZERO PUSH1 0x5 PUSH1 0x0 SWAP1 SLOAD SWAP1 PUSH2 0x100 EXP SWAP1 DIV PUSH1 0xFF AND ISZERO ISZERO EQ PUSH2 0x17E JUMPI PUSH1 0x0 DUP1 REVERT JUMPDEST PUSH1 0x0 DUP1 DUP2 SLOAD DUP1 SWAP3 SWAP2 SWAP1 PUSH2 0x190 SWAP1 PUSH2 0x9E2 JUMP JUMPDEST SWAP2 SWAP1 POP SSTORE POP PUSH2 0x19D PUSH2 0x61A JUMP JUMPDEST PUSH1 0x0 SLOAD DUP2 PUSH1 0x0 ADD DUP2 DUP2 MSTORE POP POP DUP5 DUP2 PUSH1 0x20 ADD DUP2 SWAP1 MSTORE POP DUP4 DUP2 PUSH1 0x40 ADD DUP2 DUP2 MSTORE POP POP DUP3 DUP2 PUSH1 0x60 ADD SWAP1 PUSH20 0xFFFFFFFFFFFFFFFFFFFFFFFFFFFFFFFFFFFFFFFF AND SWAP1 DUP2 PUSH20 0xFFFFFFFFFFFFFFFFFFFFFFFFFFFFFFFFFFFFFFFF AND DUP2 MSTORE POP POP DUP1 PUSH1 0x1 PUSH1 0x0 CALLER PUSH20 0xFFFFFFFFFFFFFFFFFFFFFFFFFFFFFFFFFFFFFFFF AND PUSH20 0xFFFFFFFFFFFFFFFFFFFFFFFFFFFFFFFFFFFFFFFF AND DUP2 MSTORE PUSH1 0x20 ADD SWAP1 DUP2 MSTORE PUSH1 0x20 ADD PUSH1 0x0 KECCAK256 PUSH1 0x0 DUP3 ADD MLOAD DUP2 PUSH1 0x0 ADD SSTORE PUSH1 0x20 DUP3 ADD MLOAD DUP2 PUSH1 0x1 ADD SWAP1 DUP1 MLOAD SWAP1 PUSH1 0x20 ADD SWAP1 PUSH2 0x25A SWAP3 SWAP2 SWAP1 PUSH2 0x658 JUMP JUMPDEST POP PUSH1 0x40 DUP3 ADD MLOAD DUP2 PUSH1 0x2 ADD SSTORE PUSH1 0x60 DUP3 ADD MLOAD DUP2 PUSH1 0x3 ADD PUSH1 0x0 PUSH2 0x100 EXP DUP2 SLOAD DUP2 PUSH20 0xFFFFFFFFFFFFFFFFFFFFFFFFFFFFFFFFFFFFFFFF MUL NOT AND SWAP1 DUP4 PUSH20 0xFFFFFFFFFFFFFFFFFFFFFFFFFFFFFFFFFFFFFFFF AND MUL OR SWAP1 SSTORE POP SWAP1 POP POP PUSH32 0x5622A33CFDE197628279B713AB8B88E499361A9187B6DD801ADD67CF586F9C23 PUSH1 0x0 SLOAD CALLER DUP7 PUSH1 0x40 MLOAD PUSH2 0x2E4 SWAP4 SWAP3 SWAP2 SWAP1 PUSH2 0x892 JUMP JUMPDEST PUSH1 0x40 MLOAD DUP1 SWAP2 SUB SWAP1 LOG1 PUSH1 0x0 SLOAD SWAP2 POP POP SWAP4 SWAP3 POP POP POP JUMP JUMPDEST PUSH1 0x0 ISZERO ISZERO PUSH1 0x6 PUSH1 0x0 CALLER PUSH20 0xFFFFFFFFFFFFFFFFFFFFFFFFFFFFFFFFFFFFFFFF AND PUSH20 0xFFFFFFFFFFFFFFFFFFFFFFFFFFFFFFFFFFFFFFFF AND DUP2 MSTORE PUSH1 0x20 ADD SWAP1 DUP2 MSTORE PUSH1 0x20 ADD PUSH1 0x0 KECCAK256 PUSH1 0x0 SWAP1 SLOAD SWAP1 PUSH2 0x100 EXP SWAP1 DIV PUSH1 0xFF AND ISZERO ISZERO EQ PUSH2 0x356 JUMPI PUSH1 0x0 DUP1 REVERT JUMPDEST PUSH1 0x2 PUSH1 0x0 SWAP1 SLOAD SWAP1 PUSH2 0x100 EXP SWAP1 DIV PUSH20 0xFFFFFFFFFFFFFFFFFFFFFFFFFFFFFFFFFFFFFFFF AND PUSH20 0xFFFFFFFFFFFFFFFFFFFFFFFFFFFFFFFFFFFFFFFF AND CALLER PUSH20 0xFFFFFFFFFFFFFFFFFFFFFFFFFFFFFFFFFFFFFFFF AND EQ ISZERO PUSH2 0x3B1 JUMPI PUSH1 0x0 DUP1 REVERT JUMPDEST PUSH1 0x1 PUSH1 0x6 PUSH1 0x0 CALLER PUSH20 0xFFFFFFFFFFFFFFFFFFFFFFFFFFFFFFFFFFFFFFFF AND PUSH20 0xFFFFFFFFFFFFFFFFFFFFFFFFFFFFFFFFFFFFFFFF AND DUP2 MSTORE PUSH1 0x20 ADD SWAP1 DUP2 MSTORE PUSH1 0x20 ADD PUSH1 0x0 KECCAK256 PUSH1 0x0 PUSH2 0x100 EXP DUP2 SLOAD DUP2 PUSH1 0xFF MUL NOT AND SWAP1 DUP4 ISZERO ISZERO MUL OR SWAP1 SSTORE POP JUMP JUMPDEST PUSH1 0x2 PUSH1 0x0 SWAP1 SLOAD SWAP1 PUSH2 0x100 EXP SWAP1 DIV PUSH20 0xFFFFFFFFFFFFFFFFFFFFFFFFFFFFFFFFFFFFFFFF AND PUSH20 0xFFFFFFFFFFFFFFFFFFFFFFFFFFFFFFFFFFFFFFFF AND CALLER PUSH20 0xFFFFFFFFFFFFFFFFFFFFFFFFFFFFFFFFFFFFFFFF AND EQ PUSH2 0x465 JUMPI PUSH1 0x0 DUP1 REVERT JUMPDEST PUSH1 0x0 ISZERO ISZERO PUSH1 0x5 PUSH1 0x0 SWAP1 SLOAD SWAP1 PUSH2 0x100 EXP SWAP1 DIV PUSH1 0xFF AND ISZERO ISZERO EQ PUSH2 0x485 JUMPI PUSH1 0x0 DUP1 REVERT JUMPDEST PUSH32 0x3270B5691AF526F8182C9B4D6C779A3008EDDCEEE1C00CA86BD9E31B4554709 DUP3 DUP3 PUSH1 0x40 MLOAD PUSH2 0x4B6 SWAP3 SWAP2 SWAP1 PUSH2 0x8C9 JUMP JUMPDEST PUSH1 0x40 MLOAD DUP1 SWAP2 SUB SWAP1 LOG1 DUP2 PUSH1 0x3 DUP2 SWAP1 SSTORE POP DUP1 PUSH1 0x4 DUP2 SWAP1 SSTORE POP PUSH1 0x1 PUSH1 0x5 PUSH1 0x0 PUSH2 0x100 EXP DUP2 SLOAD DUP2 PUSH1 0xFF MUL NOT AND SWAP1 DUP4 ISZERO ISZERO MUL OR SWAP1 SSTORE POP POP POP JUMP JUMPDEST PUSH32 0xD8E808805F95552D6DE13372D6C625E6D1AC526F69DE97048077C6C2EED41E74 DUP2 PUSH1 0x40 MLOAD PUSH2 0x51A SWAP2 SWAP1 PUSH2 0x877 JUMP JUMPDEST PUSH1 0x40 MLOAD DUP1 SWAP2 SUB SWAP1 LOG1 POP JUMP JUMPDEST PUSH1 0x1 ISZERO ISZERO PUSH1 0x5 PUSH1 0x0 SWAP1 SLOAD SWAP1 PUSH2 0x100 EXP SWAP1 DIV PUSH1 0xFF AND ISZERO ISZERO EQ PUSH2 0x545 JUMPI PUSH1 0x0 DUP1 REVERT JUMPDEST POP POP JUMP JUMPDEST PUSH1 0x2 PUSH1 0x0 SWAP1 SLOAD SWAP1 PUSH2 0x100 EXP SWAP1 DIV PUSH20 0xFFFFFFFFFFFFFFFFFFFFFFFFFFFFFFFFFFFFFFFF AND PUSH20 0xFFFFFFFFFFFFFFFFFFFFFFFFFFFFFFFFFFFFFFFF AND CALLER PUSH20 0xFFFFFFFFFFFFFFFFFFFFFFFFFFFFFFFFFFFFFFFF AND EQ PUSH2 0x5A3 JUMPI PUSH1 0x0 DUP1 REVERT JUMPDEST PUSH1 0x1 ISZERO ISZERO PUSH1 0x5 PUSH1 0x0 SWAP1 SLOAD SWAP1 PUSH2 0x100 EXP SWAP1 DIV PUSH1 0xFF AND ISZERO ISZERO EQ PUSH2 0x5C3 JUMPI PUSH1 0x0 DUP1 REVERT JUMPDEST PUSH1 0x4 SLOAD TIMESTAMP GT PUSH2 0x5D1 JUMPI PUSH1 0x0 DUP1 REVERT JUMPDEST PUSH32 0x5703C2DBB5386F40B06EE9F3400D3CF4C935BC803C3F56D4B20C4ACA936199E7 PUSH1 0x40 MLOAD PUSH1 0x40 MLOAD DUP1 SWAP2 SUB SWAP1 LOG1 PUSH1 0x0 PUSH1 0x5 PUSH1 0x0 PUSH2 0x100 EXP DUP2 SLOAD DUP2 PUSH1 0xFF MUL NOT AND SWAP1 DUP4 ISZERO ISZERO MUL OR SWAP1 SSTORE POP JUMP JUMPDEST PUSH1 0x40 MLOAD DUP1 PUSH1 0x80 ADD PUSH1 0x40 MSTORE DUP1 PUSH1 0x0 DUP2 MSTORE PUSH1 0x20 ADD PUSH1 0x60 DUP2 MSTORE PUSH1 0x20 ADD PUSH1 0x0 DUP2 MSTORE PUSH1 0x20 ADD PUSH1 0x0 PUSH20 0xFFFFFFFFFFFFFFFFFFFFFFFFFFFFFFFFFFFFFFFF AND DUP2 MSTORE POP SWAP1 JUMP JUMPDEST DUP3 DUP1 SLOAD PUSH2 0x664 SWAP1 PUSH2 0x9B0 JUMP JUMPDEST SWAP1 PUSH1 0x0 MSTORE PUSH1 0x20 PUSH1 0x0 KECCAK256 SWAP1 PUSH1 0x1F ADD PUSH1 0x20 SWAP1 DIV DUP2 ADD SWAP3 DUP3 PUSH2 0x686 JUMPI PUSH1 0x0 DUP6 SSTORE PUSH2 0x6CD JUMP JUMPDEST DUP3 PUSH1 0x1F LT PUSH2 0x69F JUMPI DUP1 MLOAD PUSH1 0xFF NOT AND DUP4 DUP1 ADD OR DUP6 SSTORE PUSH2 0x6CD JUMP JUMPDEST DUP3 DUP1 ADD PUSH1 0x1 ADD DUP6 SSTORE DUP3 ISZERO PUSH2 0x6CD JUMPI SWAP2 DUP3 ADD JUMPDEST DUP3 DUP2 GT ISZERO PUSH2 0x6CC JUMPI DUP3 MLOAD DUP3 SSTORE SWAP2 PUSH1 0x20 ADD SWAP2 SWAP1 PUSH1 0x1 ADD SWAP1 PUSH2 0x6B1 JUMP JUMPDEST JUMPDEST POP SWAP1 POP PUSH2 0x6DA SWAP2 SWAP1 PUSH2 0x6DE JUMP JUMPDEST POP SWAP1 JUMP JUMPDEST JUMPDEST DUP1 DUP3 GT ISZERO PUSH2 0x6F7 JUMPI PUSH1 0x0 DUP2 PUSH1 0x0 SWAP1 SSTORE POP PUSH1 0x1 ADD PUSH2 0x6DF JUMP JUMPDEST POP SWAP1 JUMP JUMPDEST PUSH1 0x0 PUSH2 0x70E PUSH2 0x709 DUP5 PUSH2 0x923 JUMP JUMPDEST PUSH2 0x8F2 JUMP JUMPDEST SWAP1 POP DUP3 DUP2 MSTORE PUSH1 0x20 DUP2 ADD DUP5 DUP5 DUP5 ADD GT ISZERO PUSH2 0x726 JUMPI PUSH1 0x0 DUP1 REVERT JUMPDEST PUSH2 0x731 DUP5 DUP3 DUP6 PUSH2 0x9A1 JUMP JUMPDEST POP SWAP4 SWAP3 POP POP POP JUMP JUMPDEST PUSH1 0x0 DUP2 CALLDATALOAD SWAP1 POP PUSH2 0x748 DUP2 PUSH2 0xAB8 JUMP JUMPDEST SWAP3 SWAP2 POP POP JUMP JUMPDEST PUSH1 0x0 DUP3 PUSH1 0x1F DUP4 ADD SLT PUSH2 0x75F JUMPI PUSH1 0x0 DUP1 REVERT JUMPDEST DUP2 CALLDATALOAD PUSH2 0x76F DUP5 DUP3 PUSH1 0x20 DUP7 ADD PUSH2 0x6FB JUMP JUMPDEST SWAP2 POP POP SWAP3 SWAP2 POP POP JUMP JUMPDEST PUSH1 0x0 DUP2 CALLDATALOAD SWAP1 POP PUSH2 0x787 DUP2 PUSH2 0xACF JUMP JUMPDEST SWAP3 SWAP2 POP POP JUMP JUMPDEST PUSH1 0x0 DUP1 PUSH1 0x0 PUSH1 0x60 DUP5 DUP7 SUB SLT ISZERO PUSH2 0x7A2 JUMPI PUSH1 0x0 DUP1 REVERT JUMPDEST PUSH1 0x0 DUP5 ADD CALLDATALOAD PUSH8 0xFFFFFFFFFFFFFFFF DUP2 GT ISZERO PUSH2 0x7BC JUMPI PUSH1 0x0 DUP1 REVERT JUMPDEST PUSH2 0x7C8 DUP7 DUP3 DUP8 ADD PUSH2 0x74E JUMP JUMPDEST SWAP4 POP POP PUSH1 0x20 PUSH2 0x7D9 DUP7 DUP3 DUP8 ADD PUSH2 0x778 JUMP JUMPDEST SWAP3 POP POP PUSH1 0x40 PUSH2 0x7EA DUP7 DUP3 DUP8 ADD PUSH2 0x739 JUMP JUMPDEST SWAP2 POP POP SWAP3 POP SWAP3 POP SWAP3 JUMP JUMPDEST PUSH1 0x0 PUSH1 0x20 DUP3 DUP5 SUB SLT ISZERO PUSH2 0x806 JUMPI PUSH1 0x0 DUP1 REVERT JUMPDEST PUSH1 0x0 PUSH2 0x814 DUP5 DUP3 DUP6 ADD PUSH2 0x778 JUMP JUMPDEST SWAP2 POP POP SWAP3 SWAP2 POP POP JUMP JUMPDEST PUSH1 0x0 DUP1 PUSH1 0x40 DUP4 DUP6 SUB SLT ISZERO PUSH2 0x830 JUMPI PUSH1 0x0 DUP1 REVERT JUMPDEST PUSH1 0x0 PUSH2 0x83E DUP6 DUP3 DUP7 ADD PUSH2 0x778 JUMP JUMPDEST SWAP3 POP POP PUSH1 0x20 PUSH2 0x84F DUP6 DUP3 DUP7 ADD PUSH2 0x778 JUMP JUMPDEST SWAP2 POP POP SWAP3 POP SWAP3 SWAP1 POP JUMP JUMPDEST PUSH2 0x862 DUP2 PUSH2 0x953 JUMP JUMPDEST DUP3 MSTORE POP POP JUMP JUMPDEST PUSH2 0x871 DUP2 PUSH2 0x997 JUMP JUMPDEST DUP3 MSTORE POP POP JUMP JUMPDEST PUSH1 0x0 PUSH1 0x20 DUP3 ADD SWAP1 POP PUSH2 0x88C PUSH1 0x0 DUP4 ADD DUP5 PUSH2 0x868 JUMP JUMPDEST SWAP3 SWAP2 POP POP JUMP JUMPDEST PUSH1 0x0 PUSH1 0x60 DUP3 ADD SWAP1 POP PUSH2 0x8A7 PUSH1 0x0 DUP4 ADD DUP7 PUSH2 0x868 JUMP JUMPDEST PUSH2 0x8B4 PUSH1 0x20 DUP4 ADD DUP6 PUSH2 0x859 JUMP JUMPDEST PUSH2 0x8C1 PUSH1 0x40 DUP4 ADD DUP5 PUSH2 0x868 JUMP JUMPDEST SWAP5 SWAP4 POP POP POP POP JUMP JUMPDEST PUSH1 0x0 PUSH1 0x40 DUP3 ADD SWAP1 POP PUSH2 0x8DE PUSH1 0x0 DUP4 ADD DUP6 PUSH2 0x868 JUMP JUMPDEST PUSH2 0x8EB PUSH1 0x20 DUP4 ADD DUP5 PUSH2 0x868 JUMP JUMPDEST SWAP4 SWAP3 POP POP POP JUMP JUMPDEST PUSH1 0x0 PUSH1 0x40 MLOAD SWAP1 POP DUP2 DUP2 ADD DUP2 DUP2 LT PUSH8 0xFFFFFFFFFFFFFFFF DUP3 GT OR ISZERO PUSH2 0x919 JUMPI PUSH2 0x918 PUSH2 0xA89 JUMP JUMPDEST JUMPDEST DUP1 PUSH1 0x40 MSTORE POP SWAP2 SWAP1 POP JUMP JUMPDEST PUSH1 0x0 PUSH8 0xFFFFFFFFFFFFFFFF DUP3 GT ISZERO PUSH2 0x93E JUMPI PUSH2 0x93D PUSH2 0xA89 JUMP JUMPDEST JUMPDEST PUSH1 0x1F NOT PUSH1 0x1F DUP4 ADD AND SWAP1 POP PUSH1 0x20 DUP2 ADD SWAP1 POP SWAP2 SWAP1 POP JUMP JUMPDEST PUSH1 0x0 PUSH2 0x95E DUP3 PUSH2 0x977 JUMP JUMPDEST SWAP1 POP SWAP2 SWAP1 POP JUMP JUMPDEST PUSH1 0x0 PUSH2 0x970 DUP3 PUSH2 0x953 JUMP JUMPDEST SWAP1 POP SWAP2 SWAP1 POP JUMP JUMPDEST PUSH1 0x0 PUSH20 0xFFFFFFFFFFFFFFFFFFFFFFFFFFFFFFFFFFFFFFFF DUP3 AND SWAP1 POP SWAP2 SWAP1 POP JUMP JUMPDEST PUSH1 0x0 DUP2 SWAP1 POP SWAP2 SWAP1 POP JUMP JUMPDEST DUP3 DUP2 DUP4 CALLDATACOPY PUSH1 0x0 DUP4 DUP4 ADD MSTORE POP POP POP JUMP JUMPDEST PUSH1 0x0 PUSH1 0x2 DUP3 DIV SWAP1 POP PUSH1 0x1 DUP3 AND DUP1 PUSH2 0x9C8 JUMPI PUSH1 0x7F DUP3 AND SWAP2 POP JUMPDEST PUSH1 0x20 DUP3 LT DUP2 EQ ISZERO PUSH2 0x9DC JUMPI PUSH2 0x9DB PUSH2 0xA5A JUMP JUMPDEST JUMPDEST POP SWAP2 SWAP1 POP JUMP JUMPDEST PUSH1 0x0 PUSH2 0x9ED DUP3 PUSH2 0x997 JUMP JUMPDEST SWAP2 POP PUSH32 0xFFFFFFFFFFFFFFFFFFFFFFFFFFFFFFFFFFFFFFFFFFFFFFFFFFFFFFFFFFFFFFFF DUP3 EQ ISZERO PUSH2 0xA20 JUMPI PUSH2 0xA1F PUSH2 0xA2B JUMP JUMPDEST JUMPDEST PUSH1 0x1 DUP3 ADD SWAP1 POP SWAP2 SWAP1 POP JUMP JUMPDEST PUSH32 0x4E487B7100000000000000000000000000000000000000000000000000000000 PUSH1 0x0 MSTORE PUSH1 0x11 PUSH1 0x4 MSTORE PUSH1 0x24 PUSH1 0x0 REVERT JUMPDEST PUSH32 0x4E487B7100000000000000000000000000000000000000000000000000000000 PUSH1 0x0 MSTORE PUSH1 0x22 PUSH1 0x4 MSTORE PUSH1 0x24 PUSH1 0x0 REVERT JUMPDEST PUSH32 0x4E487B7100000000000000000000000000000000000000000000000000000000 PUSH1 0x0 MSTORE PUSH1 0x41 PUSH1 0x4 MSTORE PUSH1 0x24 PUSH1 0x0 REVERT JUMPDEST PUSH2 0xAC1 DUP2 PUSH2 0x965 JUMP JUMPDEST DUP2 EQ PUSH2 0xACC JUMPI PUSH1 0x0 DUP1 REVERT JUMPDEST POP JUMP JUMPDEST PUSH2 0xAD8 DUP2 PUSH2 0x997 JUMP JUMPDEST DUP2 EQ PUSH2 0xAE3 JUMPI PUSH1 0x0 DUP1 REVERT JUMPDEST POP JUMP INVALID LOG2 PUSH5 0x6970667358 0x22 SLT KECCAK256 0xCE SWAP4 DUP7 PUSH7 0x138257B09BB6FB 0x5D RETURNDATASIZE 0xB4 ADD 0xF9 0x1E 0x23 SMOD 0xD6 STATICCALL 0xE1 NUMBER DUP9 0xDD 0xBD 0xBD 0xDE MSIZE 0xAD SLT REVERT PUSH5 0x736F6C6343 STOP ADDMOD STOP STOP CALLER "
				},
				"gasEstimates": {
					"creation": {
						"codeDepositCost": "568800",
						"executionCost": "26472",
						"totalCost": "595272"
					},
					"external": {
						"aniadirParticipante()": "22933",
						"aniadirPropuesta(string,uint256,address)": "infinite",
						"finalizarVotacion()": "24439",
						"iniciarVotacion(uint256,uint256)": "infinite",
						"retirarPropuesta(uint256)": "infinite",
						"votar(uint256,uint256)": "infinite"
					}
				},
				"methodIdentifiers": {
					"aniadirParticipante()": "17657a1c",
					"aniadirPropuesta(string,uint256,address)": "170f8d1f",
					"finalizarVotacion()": "67095dd8",
					"iniciarVotacion(uint256,uint256)": "1c64b8a0",
					"retirarPropuesta(uint256)": "2295f243",
					"votar(uint256,uint256)": "4fa5a16f"
				}
			},
			"storageLayout": {
				"storage": [
					{
						"astId": 61,
						"contract": "DAO/VotingDAO.sol:VotingDAO",
						"label": "proposalCounter",
						"offset": 0,
						"slot": "0",
						"type": "t_uint256"
					},
					{
						"astId": 76,
						"contract": "DAO/VotingDAO.sol:VotingDAO",
						"label": "proposals",
						"offset": 0,
						"slot": "1",
						"type": "t_mapping(t_address,t_struct(Proposal)71_storage)"
					},
					{
						"astId": 78,
						"contract": "DAO/VotingDAO.sol:VotingDAO",
						"label": "administrator",
						"offset": 0,
						"slot": "2",
						"type": "t_address"
					},
					{
						"astId": 80,
						"contract": "DAO/VotingDAO.sol:VotingDAO",
						"label": "startDateVoting",
						"offset": 0,
						"slot": "3",
						"type": "t_uint256"
					},
					{
						"astId": 82,
						"contract": "DAO/VotingDAO.sol:VotingDAO",
						"label": "endDateVoting",
						"offset": 0,
						"slot": "4",
						"type": "t_uint256"
					},
					{
						"astId": 84,
						"contract": "DAO/VotingDAO.sol:VotingDAO",
						"label": "votingStarted",
						"offset": 0,
						"slot": "5",
						"type": "t_bool"
					},
					{
						"astId": 88,
						"contract": "DAO/VotingDAO.sol:VotingDAO",
						"label": "participants",
						"offset": 0,
						"slot": "6",
						"type": "t_mapping(t_address,t_bool)"
					}
				],
				"types": {
					"t_address": {
						"encoding": "inplace",
						"label": "address",
						"numberOfBytes": "20"
					},
					"t_bool": {
						"encoding": "inplace",
						"label": "bool",
						"numberOfBytes": "1"
					},
					"t_contract(IExecutableProposal)11": {
						"encoding": "inplace",
						"label": "contract IExecutableProposal",
						"numberOfBytes": "20"
					},
					"t_mapping(t_address,t_bool)": {
						"encoding": "mapping",
						"key": "t_address",
						"label": "mapping(address => bool)",
						"numberOfBytes": "32",
						"value": "t_bool"
					},
					"t_mapping(t_address,t_struct(Proposal)71_storage)": {
						"encoding": "mapping",
						"key": "t_address",
						"label": "mapping(address => struct VotingDAO.Proposal)",
						"numberOfBytes": "32",
						"value": "t_struct(Proposal)71_storage"
					},
					"t_string_storage": {
						"encoding": "bytes",
						"label": "string",
						"numberOfBytes": "32"
					},
					"t_struct(Proposal)71_storage": {
						"encoding": "inplace",
						"label": "struct VotingDAO.Proposal",
						"members": [
							{
								"astId": 63,
								"contract": "DAO/VotingDAO.sol:VotingDAO",
								"label": "id",
								"offset": 0,
								"slot": "0",
								"type": "t_uint256"
							},
							{
								"astId": 65,
								"contract": "DAO/VotingDAO.sol:VotingDAO",
								"label": "description",
								"offset": 0,
								"slot": "1",
								"type": "t_string_storage"
							},
							{
								"astId": 67,
								"contract": "DAO/VotingDAO.sol:VotingDAO",
								"label": "budget",
								"offset": 0,
								"slot": "2",
								"type": "t_uint256"
							},
							{
								"astId": 70,
								"contract": "DAO/VotingDAO.sol:VotingDAO",
								"label": "executable",
								"offset": 0,
								"slot": "3",
								"type": "t_contract(IExecutableProposal)11"
							}
						],
						"numberOfBytes": "128"
					},
					"t_uint256": {
						"encoding": "inplace",
						"label": "uint256",
						"numberOfBytes": "32"
					}
				}
			},
			"userdoc": {
				"kind": "user",
				"methods": {},
				"version": 1
			}
		}
	}
}